:100000000C946C020C9494020C9494020C94940240
:100010000C9494020C9494020C9494020C94940208
:100020000C9494020C9494020C9494020C94A616D2
:100030000C9494020C9494020C9494020C949402E8
:100040000C941D170C9494020C944C190C949A194E
:100050000C9494020C9494020C9494020C949402C8
:100060000C9494020C949402401E000000000000C6
:100070000000000000000018000000000000007EEA
:1000800000000000001FE1E200000000007FF9C353
:100090000000000001FFFF830000000003FFFF805D
:1000A0000000000007FFFF80000000000FFFFFC0FE
:1000B000000000000FE03FC0000000001FE78FE0DD
:1000C000000000001FE7CFE0000000001FE7CFE0C6
:1000D000000000003FE7CFF0000000003FE79FF086
:1000E000000000003FE03FF0000000003FE78FF01D
:1000F000000000003FE7E7F0000000003FE7E7F006
:10010000000000003FE7E7F0000000001FE7C7E045
:10011000000000001FE78FE0000000001FE03FE04C
:10012000000000000FFFFFC0000000000FFFFFC035
:100130000000000007FFFF800000000003FFFF0039
:100140000000000001FFFE0000000000007FF8003A
:1001500000000000001FE0000000426F6D62657249
:100160006D616E206279204C696D6974656400422E
:100170006F6D6265726D616E206279204C696D6988
:100180007465640003053F213F0A100A1208120E2D
:100190001C0E0C1E0C141A14161F161E131E1E1BEA
:1001A0001E1E1F1E3F213F3A2F3A173D173F213F8A
:1001B000181F02040A041F0E04040E1F0A1F0A0E51
:1001C0000E1F04110E2E252E2F2A2E262929021F3E
:1001D00002081F08150E04040E150E15151B151B1D
:1001E000040604040C040000000017000300031FB1
:1001F0000A1F16371A1904130A153A000300000ED5
:1002000011110E000A040A040E0400300004040454
:100210000010001804031F111F121F101D151711C5
:10022000151F07041F17151D1F151D01011F1F1581
:100230001F17151F000A00003200040A110A0A0ADB
:10024000110A040115020E11171E051E1F150A0EB4
:10025000110A1F110E1F15111F05010E111D1F047C
:100260001F111F1108100F1F041B1F10101F061F46
:100270001E040F0E110E1F09060E112E1F051A1255
:100280001509011F011F101F0F180F1F0C1F1B0442
:100290001B031C03191513001F11030418111F0061
:1002A0000201022020200001020C121E1F120C0C61
:1002B00012120C121F0C1A14041E05242A1E1F02EF
:1002C0001C141D1020201D1F0814111F101E041EB9
:1002D0001E021C0C120C3E0A040C123E1E040214D8
:1002E000160A020F120E101E0E100E1E081E120C01
:1002F0001226281E322A26041E21001F00211E0459
:100300000102013F213F0A4E6F2053442063617276
:1003100064206F720A6E6F204C4F414445522E4844
:1003200045580A0A153A45786974001D20466C61E3
:100330007368696E670A20206C6F616465722E2E87
:100340002E0A0A444F4E2754205455524E204F46F1
:100350004621004E4F20424154544552590A0A50FA
:100360004C454153450A5455524E204F46460017BE
:100370007361766500166261636B00157479706550
:10038000000A0A0A153A6F6B617920163A656469AA
:100390007400596F7520656E74657265640A005447
:1003A0000A03E181867F3E186D830F0F0E0183865D
:1003B0006033186DC3198F1803C38E6033186DE353
:1003C00030CF1803C39E603630CDE360CF3006C710
:1003D0009E7E3E30CDB360CF300CC6F6603330D950
:1003E000B660CF33CFCCF66061B0DB1E60CF30D8C3
:1003F0006CE6C061B0DB1E618F19986CC6C063B13A
:100400009B0E330F0FB078C6FF7E1F1B061E0F1703
:10041000534400161378001613140015102000150D
:100420002010000000050089300802380249786871
:100430001400004500680100000500680138010053
:10044000000500380168010000F6E8DBCFC3B8AE54
:10045000A49B928A827B746E68625C57524E4945B7
:10046000413E3A3734312E2C29272523217104753A
:10047000040101F7030101FF03000000002400272D
:10048000002A0000000000250028002B00000000CA
:1004900000230026002900040404040404040402C8
:1004A0000202020202030303030303010204081011
:1004B00020408001020408102001020408102000DE
:1004C0000000070002010000030406000000000015
:1004D00000000000C202061B11241FBECFEFD8E0AF
:1004E000DEBFCDBF13E0A0E0B1E0EAEEFFE302C063
:1004F00005900D92AC3BB107D9F716E0ACEBB3E039
:1005000001C01D92AB3FB107E1F714E0C8EDD4E0A4
:1005100004C02297FE010E94571FC43DD107C9F7AE
:100520000E945C1B0C94F31F0C940000869586952A
:1005300090E0AA2797FDA095BA2FBC01CD010E949B
:10054000D71D20E030E040E05FE30E94401D0E94A4
:10055000A41DDC01CB0108958695869590E0AA271D
:1005600097FDA095BA2FBC01CD010E94D71D20E0B8
:1005700030E040E05FE30E94401D0E94A41DDC01CA
:10058000CB010895ECEBF3E084E8DF011D928A953E
:10059000E9F710920B0410920A0487EA93E0909313
:1005A00009048093080480919D03809348048091FE
:1005B0009E038093490408950F93809141048823FA
:1005C00009F441C060912A0470912B0480912C049D
:1005D00090912D0429E130E040E050E00E94181F86
:1005E000611571058105910571F1609142046F5F9C
:1005F00088E094E04091430422E001E00E949109E8
:10060000409143044F5F88E094E06091420421E010
:1006100002E00E949109609142046F5F409143049F
:100620004D5F88E094E022E001E00E949109609132
:1006300042046D5F409143044F5F88E094E021E005
:1006400002E00E9491090F910895EF92FF920F939B
:1006500088E0E82E84E0F82EC7016091990340916C
:100660009A0320919B0300919C030E949109C7016A
:1006700060E00E94BF08609199036F5F40919A0308
:100680004F5FC7010E94C708609199036E5F409158
:100690009A034E5FC7010E94C708C70161E00E942C
:1006A000BF080F91FF90EF900895FF920F931F9353
:1006B000082FF62E89ED96E060E071E00E94D81CCC
:1006C00010E085E190E09801289F8001299F100D9E
:1006D000389F100D11240F0D111D00521E4F89ED72
:1006E00096E0F80160814AE050E00E94BA1CF801EF
:1006F0000081023028F0023011F481E002C001C014
:1007000080E01F910F91FF9008950F931F93162F74
:100710000E949602082F812F0E94AC02182F89EDAB
:1007200096E067E071E00E94D81C89ED96E0602FAA
:100730004AE050E00E94A81C89ED96E06FE071E06D
:100740000E94D81C89ED96E0612F4AE050E00E949B
:10075000BA1C81EE93E00E94CA16602F6F5F812F52
:100760000E9455038823D1F089ED96E063E171E0A2
:100770000E94DB1C212F30E085E190E0289FF001F2
:10078000299FF00D389FF00D1124E052FE4FE00F2D
:10079000F11D118281EE93E00E94D016602F61500E
:1007A000812F0E9455038823D9F089ED96E063E2FA
:1007B00071E00E94DB1C212F30E085E190E0289F52
:1007C000F001299FF00D389FF00D1124E052FE4FEB
:1007D000E00FF11D3197108281EE93E00E94D01658
:1007E000812F8150602F0E9455038823D9F089ED15
:1007F00096E062E371E00E94DB1C812F90E001979C
:1008000025E130E0829FF001839FF00D929FF00D73
:100810001124E00FF11DE052FE4F108281EE93E0B3
:100820000E94D016812F8F5F602F0E94550388236E
:10083000D9F089ED96E06FE371E00E94DB1C812F17
:1008400090E0019625E130E0829FF001839FF00D5A
:10085000929FF00D1124E00FF11DE052FE4F108227
:1008600081EE93E00E94D0161F910F9108952F9270
:100870003F924F925F926F927F928F929F92AF9230
:10088000BF92CF92DF92EF92FF920F931F93DF936D
:10089000CF9300D000D00F92CDB7DEB780919903EF
:1008A0000E949602082F10E080919A030E94AC02E9
:1008B00090E0AC014250504098012E5F3F4F0296AD
:1008C0000250104017FF02C000E010E0290126E1AD
:1008D000421651041CF015E1412E512C9D838C834E
:1008E0000D9724F08CE090E09D838C83BA0157FF34
:1008F00002C060E070E0662E0B8364C0ECE0E61599
:1009000008F45FC07B809C01220F331F220F331F2E
:100910003A832983E5E1F0E08E9F10018F9F300C30
:100920009E9F300C112447C0F5E1F71508F442C032
:10093000F101EE0DFF1DE052FE4F80818823D1F1C1
:100940006091990340919A0320919B0300919C032D
:10095000EE0CFF1CEE0CFF1C8CEB93E070E050E003
:1009600030E010E0C980DA80F4E0AF2EB12CE4E092
:100970008E2E912C0E944F0F8823E1F089ED96E096
:100980006EE471E00E94D81C89ED96E0672D4AE084
:1009900050E00E94A81C89ED96E06FE571E00E948E
:1009A000D81C89ED96E0662D4AE050E00E94BA1C02
:1009B00081E011C07394E72CFF24E414F5040CF4D7
:1009C000B3CF6394862D90E02C813D8182179307ED
:1009D0000CF494CF80E00F900F900F900F900F9039
:1009E000CF91DF911F910F91FF90EF90DF90CF900B
:1009F000BF90AF909F908F907F906F905F904F903F
:100A00003F902F90089580919C0340E350E0481B55
:100A1000510990919E0380919A03282F30E0290F6D
:100A2000311D241735070CF4A90140939A030E9445
:100A300037048823A1F080919C0340E350E0481BD9
:100A4000510980919A03282F30E080919E03281B42
:100A50003109241735070CF4A90140939A0308952E
:100A600080919A03282F30E080919E03281B310942
:100A700037FF02C020E030E020939A030E94370441
:100A8000882339F080919A0390919E03890F809377
:100A90009A03089580919B0344E550E0481B510957
:100AA00090919D0380919903282F30E0290F311DEB
:100AB000241735070CF4A901409399030E943704C9
:100AC0008823A1F080919B0344E550E0481B510925
:100AD00080919903282F30E080919D03281B3109D4
:100AE000241735070CF4A9014093990308958091C8
:100AF0009903282F30E080919D03281B310937FF8F
:100B000002C020E030E0209399030E94370488233C
:100B100039F08091990390919D03890F80939903F7
:100B20000895AF92BF92DF92EF92FF920F931F93BF
:100B3000CF93DF93EE24FF24DD2405E1A02EB12C1A
:100B400022C08881813049F488E094E0612F4D2DE6
:100B500024E004E00E9491090AC0823041F488E058
:100B600094E0612F4D2D24E004E00E94C7092196F6
:100B70001C5F143531F70894E11CF11C84E0D80E99
:100B800080E3D81659F0EA9CE001EB9CD00DFA9C6A
:100B9000D00D1124C052DE4F10E0D3CFDF91CF91A2
:100BA0001F910F91FF90EF90DF90BF90AF9008954D
:100BB00080914004882311F40E949105089580914A
:100BC0004104882309F10E94651720914404309163
:100BD00045044091460450914704621B730B840BFB
:100BE000950B685873418040904070F0109241041A
:100BF00089ED96E065E671E00E94DB1C809142047D
:100C0000609143040E94850308951F93982F162F27
:100C100080914104882309F06DC096959695692FBF
:100C200070E0882777FD8095982F0E94D71D20E0DF
:100C300030E040E05FE30E94401D0E94A41D32E0CE
:100C4000660F771F881F991F3A95D1F7609342046A
:100C500016951695612F70E0882777FD8095982F5F
:100C60000E94D71D20E030E040E05FE30E94401D7D
:100C70000E94A41D22E0660F771F881F991F2A95E6
:100C8000D1F76093430481E0809341040E9465178B
:100C90006093440470934504809346049093470402
:100CA00089ED96E062E771E00E94D81C89ED96E03C
:100CB000609142044AE050E00E94A81C89ED96E051
:100CC0006EE771E00E94D81C89ED96E060914304C4
:100CD0004AE050E00E94BA1C4091440450914504FF
:100CE000609146047091470489ED96E02AE030E077
:100CF0000E94831C1F91089586EC93E065E00E949A
:100D00006F08882341F090E080914004882309F423
:100D100091E09093400486EC93E066E00E946F08B7
:100D2000882341F08CEB93E06AE571E048E650E0FF
:100D30000E94D01186EC93E060E041E00E947908C7
:100D4000882319F00E94770520C086EC93E062E0CA
:100D500041E00E947908882319F00E944A0515C0D5
:100D600086EC93E061E041E00E947908882319F065
:100D70000E9430050AC086EC93E063E041E00E94E7
:100D80007908882311F00E94030586EC93E064E063
:100D90000E946F08882371F080919B0386952091B3
:100DA000990360919C03669590919A03690F820F55
:100DB0000E940506089580914004882309F44AC0E2
:100DC00088E094E062E871E00E94D81C88E094E03A
:100DD00064E971E00E94D81C88E094E06091990376
:100DE0004AE050E00E94A81C88E094E06EE971E0BF
:100DF0000E94D81C88E094E060919A034AE050E099
:100E00000E94A81C88E094E069EA71E00E94D81C66
:100E10008CEB93E00E949F0EBC0188E094E04AE0D6
:100E200050E00E94971C88E094E064EB71E00E941F
:100E3000D81C8CEB93E00E94900E682F88E094E021
:100E40004AE050E00E94A81C88E094E06BEB71E05F
:100E50000E94D81C08958CEB93E00E941711882300
:100E600089F00E947C0680914004882319F00E943A
:100E7000DB0608950E94DF050E94D8050E94250325
:100E80000E94DC0208950F931F9309ED16E0C8013C
:100E900040E855E260E070E00E94D519C8016AECB4
:100EA00071E00E94DB1C0CEB13E0C8010E942E13C2
:100EB000C8010E94E210C80165E10E947E0E81E037
:100EC0008093D403C8016FE671E048E650E00E94C9
:100ED000D01188E094E064E871E00E941C0C1F913E
:100EE0000F910895882319F48CB5806202C08CB5E7
:100EF0008F7D8CBD08959CB5937F982B9CBD0895E4
:100F00002CB5382F33702C7F322B3CBD2DB590E0A3
:100F1000959587959595879581702E7F822B8DBDB0
:100F200008958AE061E00E94E8188AE061E00E948A
:100F30007C188CB580618CBD8CB580648CBD8DE0D7
:100F400061E00E947C188BE061E00E947C180895AB
:100F5000FC0181E08083089585E070E00E941C1808
:100F600008956F927F928F929F92AF92BF92CF928D
:100F7000DF92EF92FF920F931F93CF93DF93EC01D9
:100F800089819A818C0124E0000F111F2A95E1F7D5
:100F9000081B190B85E10E94FA17BC01600F711F35
:100FA00084E0769567958A95E1F77A8369838881ED
:100FB000882381F12E813F816217730710F4B901F4
:100FC00006C0888599858617970708F4BC0100D06C
:100FD00000D080E090E040E050E0E884F98400E058
:100FE00010E0AD80BB24CC24DD246C8077248824E1
:100FF0009924EDB7FEB761827282838294820E9447
:10100000EE1C6B830F900F900F900F9085E070E0B7
:101010000E941C18DF91CF911F910F91FF90EF90CC
:10102000DF90CF90BF90AF909F908F907F906F9008
:101030000895FC018CE39FE09383828384E08183A5
:1010400081E084870895CF93DF93EC018C8590E055
:101050008F719070892B69F584E10E94FA17AA2795
:1010600097FDA095BA2FBC01CD010E94D71D26EE99
:101070003FE34EEC50E40E94631E0E94A91D9B01B9
:10108000AC017B836A836115710589F084E08983F3
:10109000B901FE0120E0848195816817790710F479
:1010A00029830AC02F5F32962430A9F702C08FEF40
:1010B00089838C858F5F8C87DF91CF910895FC01A8
:1010C00088E0808389E0818387E0828386E0838370
:1010D00084E0848382E0858381E18683089520E033
:1010E000FC01E60FF11D8781813009F421E0822F98
:1010F0000895E62FF0E0423040F420E0E80FF91FB9
:10110000878181508E3F88F40FC0E80FF91F8781D7
:101110008F3F11F420E009C020E090E0642F70E0E0
:101120000E94F11E019709F421E0822F08950F9388
:101130001F93CF93DF93EC0110E00FEF888162E003
:101140000E947C1888810E941B192F81892B19F419
:101150002F5F2F8307C0222349F02F3F11F41F82F6
:1011600001C00F83888160E00E947C181F5F219678
:10117000173021F7DF91CF911F910F910895FC0156
:10118000678F60A30895FC01678F40A30895FC0159
:101190006435A8F547FD33C040338CF5878D942F17
:1011A000959595959595772767FD70954770882358
:1011B00099F0E4E59E02F0011124E60FF71FE65BCB
:1011C000FB4F81E090E002C0880F991F4A95E2F73B
:1011D0002081282B20830895E4E59E02F00111244C
:1011E000E60FF71FE65BFB4F81E090E002C0880F3F
:1011F000991F4A95E2F7809520812823208308953E
:10120000AF92BF92CF92DF92EF92FF920F931F9314
:10121000CF93DF93EC01162FF42EE22EAA24402F59
:10122000552747FD50958F2D992787FD9095481B91
:10123000590B57FF03C0509541955F4F2E2D332713
:1012400027FD3095812F992787FD9095281B390B15
:1012500037FF03C0309521953F4F2417350744F4DD
:10126000AA24A3948F2DF12E182F802F0E2DE82E57
:10127000E11634F48E2DE12E182F802F0F2DF82E2D
:10128000DE2CD11A202F332727FD30958F2D99275B
:1012900087FD9095281B390B37FF03C030952195AA
:1012A0003F4FB22EF0161CF0CC24CA9402C0CC24BE
:1012B000C3948D2DD7FC8F5F082F059511C0AA20F0
:1012C00021F0CE016F2D412F03C0CE01612F4F2D94
:1012D0000E94C7080B1907FF02C0FC0C0D0D1F5F11
:1012E000E1166CF7DF91CF911F910F91FF90EF9076
:1012F000DF90CF90BF90AF9008950F93042F322FBF
:10130000262F2150230F0E9400090F9108950F935B
:10131000362F042F0150020F232F0E9400090F9136
:1013200008959F92AF92BF92CF92DF92EF92FF9279
:101330000F931F93CF93DF936C01B62E942EA02EA4
:10134000C0E0D0E0E62EFF24E7FCF094022F112746
:1013500007FD10950E0D1F1D06C0C601492D2A2D33
:101360000E94870921966B2D6C0FCE018E0D9F1D5B
:101370008017910794F3DF91CF911F910F91FF9008
:10138000EF90DF90CF90BF90AF909F900895CF9255
:10139000DF92EF92FF920F931F937C01162FD42EB2
:1013A000C22E0E947D094D2D4150400FC701612F73
:1013B0002C2D0E947D09C701612F4D2D202F0E94E9
:1013C000870911501C0DC701612F4D2D202F0E9440
:1013D00087091F910F91FF90EF90DF90CF900895B4
:1013E0002F923F925F926F927F928F929F92AF92D5
:1013F000BF92CF92DF92EF92FF920F931F93DF93F2
:10140000CF9300D000D000D0CDB7DEB79E838D83C0
:10141000C62ED42EEE24E394E21A8EEF289F502C91
:101420001124842E8A94962E9A94A42EA394B62ED8
:10143000B394F22E662423E0722E10E0C80184706B
:1014400090709A838983F801E270F070FC83EB83DB
:1014500098E0292E312C202231220170107054C0C6
:10146000E7FC04C0FA94F2E05F0EE50C6394898116
:101470009A81892B71F04F2D4D0D8D819E816B2DA1
:101480000E94C7086F2D6C0D8D819E814A2D0E9490
:10149000C708EB81FC81EF2B71F04D2D4F198D8129
:1014A0009E816B2D0E94C7086F2D6C0D8D819E81D2
:1014B000482D0E94C7082114310471F06C2D6F195A
:1014C0008D819E814A2D0E94C7084F2D4D0D8D8123
:1014D0009E81692D0E94C7080115110571F06C2DC0
:1014E0006F198D819E81482D0E94C7084D2D4F197F
:1014F0008D819E81692D0E94C708E70CF2E07F0E66
:101500008A949A94A394B3946F140CF4A9CF26965A
:101510000FB6F894DEBF0FBECDBFCF91DF911F9104
:101520000F91FF90EF90DF90CF90BF90AF909F9082
:101530008F907F906F905F903F902F9008954F9283
:101540005F926F927F928F929F92AF92BF92CF9253
:10155000DF92EF92FF920F931F93CF93DF93EC01F3
:10156000A62E742E9E2DFF24F394F21A8EEF289F40
:10157000802C1124B42EBA9453E0C52ECE0CE22E4A
:10158000DD2443E0942E10E031E0432E512C402224
:101590005122692E63940270107034C0F7FC04C0AD
:1015A000EA9482E0880EF80CD3944114510489F037
:1015B0006D2D6A0D472D4E192E2D220F260DCE01B1
:1015C0000E9487096E2D6A0DCE014B2D2C2D0E9495
:1015D00087090115110589F06A2D6D19472D4E19DE
:1015E0002E2D220F260DCE010E9487096A2D6E191D
:1015F000CE014B2D2C2D0E948709F90C82E0980E0C
:10160000BA94C80EDE1454F2DF91CF911F910F915E
:10161000FF90EF90DF90CF90BF90AF909F908F9012
:101620007F906F905F904F9008957F928F929F92DE
:10163000AF92BF92CF92DF92EF92FF920F931F93E0
:101640006C01962EA42EF22E7E2C760E1EEFE19EBD
:10165000102D1124812E820E672D282D0E947D09C8
:10166000B02EBA0CBA94C601672D4B2D282D0E94BE
:101670007D09AE0C100FC601692D4A2D212F0E9445
:101680008709F90CFA94C6016F2D4A2D212F0E946B
:101690008709C601672D4A2D2E2D01E00E94F00911
:1016A000FE18C6016F2D4A2D2E2D02E00E94F00972
:1016B000BE18C6016F2D4B2D2E2D04E00E94F0099F
:1016C000C601672D4B2D2E2D08E00E94F0091F91B9
:1016D0000F91FF90EF90DF90CF90BF90AF909F90D1
:1016E0008F907F9008958F929F92AF92BF92CF92EA
:1016F000DF92EF92FF920F931F936C01162FA42E8F
:10170000922EF02EBE2C8E2C860E2EEFE29EE02C1A
:1017100011242E2D290D682D0E949109AB0CFA94ED
:10172000FE0C1150190D1B19C601612F4A2D2B2DCE
:1017300001E0EF2C0E949F0AC601682D4A2D2B2D37
:1017400002E00E949F0A1F910F91FF90EF90DF909F
:10175000CF90BF90AF909F908F9008953F924F92FF
:101760005F926F927F928F929F92AF92BF92CF9231
:10177000DF92EF92FF920F931F93CF93DF934C0171
:10178000362E442EF901A490319654906F0108949E
:10179000C11CD11C8A2D992787FD9095079668E07A
:1017A00070E00E94051FE62EFF24E7FCF09400E0A5
:1017B000C0E0D0E060E8662E712C26C0E12FE595F0
:1017C000E595E595FF27E7FDF095EC0FFD1FEC0D86
:1017D000FD1DE4912E2F30E0812F8770A30102C000
:1017E000559547958A95E2F724233523232B31F02D
:1017F000612F630DC4014B2D0E94C7081F5F1A158E
:10180000ECF20F5FCE0DDF1D051524F410E0B02EB5
:10181000B40CF5CFDF91CF911F910F91FF90EF9016
:10182000DF90CF90BF90AF909F908F907F906F9000
:101830005F904F903F900895DC01FB0184918F5F92
:1018400014968C931497319684918F5F15968C9390
:10185000159731965E96FC93EE935D9708953F92AF
:101860004F925F926F927F928F929F92AF92BF92B0
:10187000CF92DF92EF92FF920F931F93CF93DF935C
:10188000EC01862EA42E422F102F3F8C23E5261725
:101890000CF4ABC03FE23A150CF4A7C0C02EDD2417
:1018A0008C8190E001979C01C29EC001C39E900D67
:1018B000D29E900D1124262F332727FD3095820FBD
:1018C000931F181619060CF090C08D8190E09C01B2
:1018D000C29EC001C39E900DD29E900D11242A2D50
:1018E000332727FD3095820F931F181619060CF029
:1018F0007CC09924442E55246DC09C012150304059
:101900004217530711F460E00EC0429EC001439E8F
:10191000900D529E900D1124840F951FED8DFE8D1C
:10192000E80FF91F64914C9DC0014D9D900D5C9D89
:10193000900D1124682C680EBB24792C780C3FC0C4
:10194000E62EFF2460FF19C0113039F44B2D4A0DEB
:10195000CE01672D0E94C7082EC02C9DC0012D9D71
:10196000900D3C9D900D11244A2D480FCE01662DFF
:10197000212F012F0E9491091EC098A18F8D9817C9
:10198000D1F09F8F113039F44B2D4A0DCE01672DC8
:101990000E94C7080FC02C9DC0012D9D900D3C9D3D
:1019A000900D11244A2D480FCE01662D212F012FB5
:1019B0000E9491093F8EF594E7946E2DB3942B2DE0
:1019C000332727FD30958D8190E0281739070CF4D7
:1019D000B7CF9394492D552747FD50958C8190E0C2
:1019E000481759070CF489CF3F8EDF91CF911F9193
:1019F0000F91FF90EF90DF90CF90BF90AF909F90AE
:101A00008F907F906F905F904F903F9008950F93CD
:101A1000CF93DF93EC01262F6A3049F48D819885AE
:101A2000899F802D11249A85980F9A8726C06D3042
:101A300029F169854A8508850E942F0C9C8168855B
:101A4000969F402D11248985480F49878F818823CF
:101A5000A9F0552747FD5095699F9001112484E511
:101A600090E0821B930B8417950744F49D81699F36
:101A7000902D11248A85890F8A87198681E090E04C
:101A8000DF91CF910F9108951F93CF93DF93EC01D6
:101A9000162FF8948E8560E00E94E8188F8518163E
:101AA0001CF460E00E94E8181EBD0DB407FEFDCFD7
:101AB0008EB58F8518161CF461E00E94E8187894A2
:101AC000DF91CF911F910895FF920F931F93CF93B2
:101AD000DF93EC01FF2400E010E06F2D6064CE0185
:101AE0000E94440DCE0160E80E94440D8E8561E0A5
:101AF0000E94E8188F8518161CF460E00E94E81810
:101B0000F801E65BFB4F90E080818EBD0DB407FECF
:101B1000FDCF8EB59F5F31969435B1F78F8518163E
:101B20001CF461E00E94E818F3940C5A1F4F86E001
:101B3000F81699F6CE0160E40E94440DDF91CF9132
:101B40001F910F91FF900895CF93DF93DC0188EFF1
:101B500091E0EAE4F4E0EF019C0119922150304059
:101B6000E1F719961C9219971A961C92DF91CF9162
:101B70000895EF920F93CF93DF93EC014D876C871D
:101B80002E87E88A0F8781E088878F8F18A28F833E
:101B9000CE0164E871E00E941C0C0E94910781E074
:101BA0000E94720785E00E9480078CE00E947B07FC
:101BB0008D8561E00E947C188C8561E00E947C1814
:101BC0008E8561E00E947C18888918161CF461E0FB
:101BD0000E947C188F8518161CF461E00E947C1806
:101BE000888918166CF460E00E94E8186AE070E0DA
:101BF00080E090E00E949917888961E00E94E818CF
:101C0000EC852E2F332727FD3095F901E956FB4F40
:101C1000E491F0E0EE0FFF1FED57FB4F859194919B
:101C20009C8B8B8B25553B4FF90184918A8FED85D9
:101C30002E2F332727FD3095F901E956FB4FE4910C
:101C4000F0E0EE0FFF1FED57FB4F859194919A8BBB
:101C5000898B25553B4FF9018491898FEF852E2F74
:101C6000332727FD3095F901E956FB4FE491F0E069
:101C7000EE0FFF1FED57FB4F859194919E8B8D8B3F
:101C800025553B4FF90184918B8FEE852E2F3327FD
:101C900027FD3095F901E956FB4FE491F0E0EE0F96
:101CA000FF1FED57FB4F85919491988F8F8B255592
:101CB0003B4FF90184918C8FCE0161E20E94440D6B
:101CC000CE0164E10E94440D8B8587FF02C08FE73F
:101CD0008B876B856068CE010E94440DCE0160E267
:101CE0000E94440DCE016CE00E94440DCE010E9482
:101CF000640DDF91CF910F91EF900895FC01262F95
:101D0000E458FF4F88EE93E070E00E94051F608367
:101D1000EC57F040822F64E10E94E51E87A30895EE
:101D2000FC01E458FF4F60818AE0689FB0011124F4
:101D30003A97808191810E94F11E862F0895DF934A
:101D4000CF9300D0CDB7DEB78091A0039091A103CF
:101D5000009711F48BEF96E09E012F5F3F4F281BF9
:101D6000390BC9010F900F90CF91DF910895CF9358
:101D7000DF93DC01E0E8FFE685919491ED01C95A1B
:101D8000DF4FAD0143595F4F8150904C09F04EC079
:101D9000E6E9FFE6E491E883E7E9FFE6E4911496DB
:101DA000EC931497E8E9FFE6E4911596EC93159708
:101DB000E9E9FFE68591949117969C938E93169787
:101DC000EBE9FFE68591949119969C938E93189771
:101DD000EDE9FFE6E4919996EC939997EEE9FFE639
:101DE000E4919896EC939897EFE9FFE6E491EA0185
:101DF000E883E0EAFFE6859194915D969C938E934B
:101E00005C97E2EAFFE6859194915F969C938E93AE
:101E10005E97E4EAFFE68591949191969C938E9368
:101E20009097E6EAFFE68591949132C08CE388832F
:101E300014961C9214972FEF15962C93159780E209
:101E400093E017969C938E93169784ED93E01996E2
:101E50009C938E93189781E099968C939997989676
:101E60008C939897FA0120838CEA9DE05D969C9371
:101E70008E935C978EED9DE05F969C938E935E971C
:101E800084E79EE091969C938E9390978CE39FE0DD
:101E900093969C938E939297DF91CF9108958F9212
:101EA0009F92AF92BF92CF92DF92EF92FF920F93E9
:101EB0001F93DF93CF93CDB7DEB76E157F050CF47C
:101EC00052C0C5018E0D9F1D681779070CF04BC0DD
:101ED0004C155D050CF447C0C4018C0D9D1D4817C1
:101EE00059078CF140C0C5018E0D9F1D2817390779
:101EF0000CF043C04C155D050CF43FC0C4018C0DC3
:101F00009D1D48175907FCF038C0C5018E0D9F1D57
:101F100068177907CCF54C155D05B4F1C4018C0D3B
:101F20009D1D481759077CF02FC0AE0CBF1C2A1509
:101F30003B055CF44C155D0544F080E08C0C9D1C69
:101F4000481559051CF481E001C080E0CF91DF9174
:101F50001F910F91FF90EF90DF90CF90BF90AF90C7
:101F60009F908F90089561507040260F371F6F5FCC
:101F70007F4F2E153F050CF0B6CF41505040400F1B
:101F8000511F6E157F050CF62E153F0574F6DDCF3B
:101F9000EF92FF920F931F93CF93DF937C018C01FD
:101FA000045B1F4FC8010E94A40DC8016BE273E0DF
:101FB0000E94951BC8010E94640D83E00E94800767
:101FC00085ED91E0EEEFFFE3099582E590E0E80E04
:101FD000F91EF7011082C80166E073E00E94E01B61
:101FE000C8010E94640DE701C854D040CE010E9490
:101FF0009708CE0164E00E946F08882339F462E3F9
:1020000070E080E090E00E949917F0CFDF91CF91CF
:102010001F910F91FF90EF9008950F931F93CF930F
:10202000DF93EC018C01045B1F4FC80161E040E0CD
:102030000E94C308FE01EB5AFF4FC05BDF4F85E5EE
:102040009881891B808326961882C655D040698D59
:10205000613061F1613028F0888D653008F03FC053
:1020600039C0CE0185960E941114CE0160E00E9415
:10207000AC07C8010E94A40DC80163E573E00E948B
:10208000951BC8010E94640D83B7817F846083BF64
:1020900083B7816083BF83B7816083BF889583B72F
:1020A0008E7F83BF83B78E7F83BF1FC0C259DF4F30
:1020B00088819981AA81BB818F709070A070B07067
:1020C0000897A105B10518F4C80167E00CC0C80164
:1020D00068E709C0882349F06B5FC80104C0882302
:1020E00021F0C8016FE20E94B81BDF91CF911F91D0
:1020F0000F910895AF92BF92CF92DF92EF92FF922D
:102100000F931F93CF93DF93EC01CD57DF4F88815F
:10211000C358D040882309F44AC08C3010F010E036
:1021200002C01CE0181BCC5ADF4F81E08883C455E5
:10213000D0406CE4C62ED12CCC0EDD1EC60160E072
:102140000E94BF0851E5A52EB12CAC0EBD1EF501B5
:1021500000814DE2F42E4F2D401B410F0D5FC60153
:1021600060E024E533E0E32E0E94730BC60161E0DA
:102170000E94BF08F5010081F01AF10E0D5FC60143
:1021800060E04F2D24E50E94150BCB5ADF4F84E011
:102190008993F5018081181B115D1883AB966991B5
:1021A0007991C6010E94951B888181508883DF91B7
:1021B000CF911F910F91FF90EF90DF90CF90BF9044
:1021C000AF9008958F929F92AF92BF92CF92DF927D
:1021D000EF92FF920F931F934C01FC01A28CB38CE2
:1021E000CC24DD240E9473177B018C01F4018180D3
:1021F00092800E947317860E971EE094F0940095CB
:102200001095C801B701A60195010E94C61E860E51
:10221000971EC4010E94371D1F910F91FF90EF90F0
:10222000DF90CF90BF90AF909F908F900895AF9226
:10223000BF92CF92DF92EF92FF920F931F93CF93B3
:10224000DF93EC01EDE7AE2EB12CA80EB91EF5011F
:10225000E080F180028113810E946517E61AF70A77
:10226000080B190B7CE7C72ED12CCC0EDD1EF60116
:10227000808190E0A0E0B0E08E159F05A007B10737
:1022800008F081C08E0108581F4FF80180819181AC
:10229000A281B3810097A105B10509F474C00E9421
:1022A0006517F6012081620F711D811D911DF501D9
:1022B0006083718382839383FE01E259FF4F8081A3
:1022C0009181A281B3810196A11DB11D808391836B
:1022D000A283B383F80110821182128213820E94BA
:1022E0007317CC58DF4F688379838A839B83C457E5
:1022F000D040CE010E94B107CE010A960E949708F5
:10230000CE0148960E9423088E010B5D1F4FC80125
:102310000E947E14C8010E945615C8010E946D16C5
:1023200081E026C0CE010E947A10CE010E940D10DD
:102330008E01045B1F4FC8010E94640DCE5ADF4F0F
:102340008881C255D040882319F4C8010E94A40D89
:102350000E947317C858DF4F688379838A839B83F1
:10236000249728813981621B730B7A936A9380E0EA
:10237000DF91CF911F910F91FF90EF90DF90CF9061
:10238000BF90AF900895C858DF4F88819981AA8186
:10239000BB81C857D0400097A105B10541F7C2CF16
:1023A0002F923F924F925F926F927F928F929F9265
:1023B000AF92BF92CF92DF92EF92FF920F931F9353
:1023C000DF93CF93CDB7DEB72B970FB6F894DEBF70
:1023D0000FBECDBF9B878A877A8369835C834B83DB
:1023E0008C0103591F4FF8018081882309F41DC116
:1023F0008A859B858D5A9F4FFC0110821292E2556F
:10240000F040FB87EA87108E9CE4E92EF12CEE0E5B
:10241000FF1EC70161E00E94BF088AE0282E312C10
:102420008A859B85280E391EB5E26B2E712C680EAD
:10243000791EE981FA81F491FD83A5E58A2E912C1C
:10244000880E991EF6E5CF2ED12CC80ED91EE0E5D8
:102450004E2E512C480E591E8F5A9F4F9F838E83AC
:102460007EE6A72EB12C8A859B85A80EB91E1987FA
:1024700008878A859B850E9417118823D1F39D8147
:10248000992311F410E003C0EE81FF811081C70190
:1024900060E040E02FE933E00E94AE0B8B819C812D
:1024A000892B41F0145FC70160E0412F2B813C81F3
:1024B0000E94AE0BF40110828CE0F6018083C7010C
:1024C00069817A810E94951BF201208130E0C90167
:1024D000880F991F820F931F909581959F4F8D5A5A
:1024E000F4018083EE81FF81208130E0C901880FF3
:1024F000991F820F931F909581959F4F835DF601E1
:102500008083F501808184FF04C0C7016FE174E01E
:1025100003C0C7016BE174E00E94E01BF20120815F
:1025200030E0C901880F991F820F931F9095819504
:102530009F4F8D5AF4018083F60180818F5F8083E5
:10254000EA85FB8580A5882321F0C70167E174E057
:1025500003C0C70163E174E00E94E01BF2018081C7
:1025600090E09C01220F331F280F391F30952195D1
:102570003F4F2D5AF4012083F60180818F5F8083C5
:10258000C7016FE074E00E94E01BC10165E00E949A
:102590006F08882351F0EA85FB8560A56F5FC30152
:1025A0000E94D616C3010E94D016C10164E00E94A9
:1025B0006F08882399F4E885F9856081262F30E03B
:1025C00040E050E0F50180819181A281B3818217C2
:1025D0009307A407B50708F16F3FF9F08A859B853B
:1025E00083599F4F9B878A878FEFEA85FB8580837E
:1025F000ED56F040FB87EA87C30160E00E940214B9
:10260000C3010E94CA1681E0EA85FB85808F0DC058
:102610008A859B850E94C80F2CCFC10166E00E946D
:102620006F08882309F425CFF3CF2B960FB6F894C3
:10263000DEBF0FBECDBFCF91DF911F910F91FF90F5
:10264000EF90DF90CF90BF90AF909F908F907F9052
:102650006F905F904F903F902F900895AF92BF92F0
:10266000CF92DF92EF920F93CF93DF936C018CE7C1
:1026700090E0C80ED91E82E3F601808381E090E0ED
:10268000A0E0B0E0B293A293929382936F0185EFA2
:102690009FEFC80ED91E8FEFF601808383E99FEF6D
:1026A000C80ED91EC6010E94B70EC6010E94A80717
:1026B000C6016FEF0E94AC074AE0A42EB12CAC0C0F
:1026C000BD1CC5010E945F08C5010E949708C60194
:1026D00048960E941908C601845B9F4F6DE04BE04D
:1026E00020E10FE03EE0E32E0E94B90DE601A59641
:1026F000CE010E94E316C50165E00E946F088823A1
:1027000029F0CE0160E00E94D61606C0CE0165E237
:1027100074E040E00E941514DF91CF910F91EF908B
:10272000DF90CF90BF90AF9008950F93CF93DF933A
:10273000EC01623009F440C0633030F4662359F094
:10274000613009F04AC00BC0633009F43BC064300B
:1027500009F043C03DC0C00FD11D4C8B3EC0602F5F
:1027600070E0DB01AA0FBB1FA80FB91F842F90E0F8
:10277000880F991F1D962D913C911E97280F391F88
:10278000F901859194915E969C938E935D97FC01DF
:1027900045915491A42FFE01E60FF71F478F252F77
:1027A0003327842F90E02817390708F4A52F6C0FE2
:1027B0007D1FFB01A0A311C0FC01E00FF11D478BA1
:1027C000208F0BC0FC01E00FF11D418F228F05C04F
:1027D000FC01E00FF11D438F248FDF91CF910F910A
:1027E0000895FC01662369F4158A138A12A211A2C6
:1027F000168A1092460610924506109243061092D1
:10280000B4000895FF920F931F938C01F62E0E943F
:10281000F1130F0D111DF80111821F910F91FF90FF
:10282000089560E00E9402140895DF92EF92FF92F3
:102830000F931F938C017B01D42E642F0E940214EE
:102840004D2D50E0FA01EE0FFF1FE00FF11FF4864F
:10285000E386FA013896EE0FFF1FE00FF11F118299
:102860001082040F151F81E0F801818389E0848BB9
:10287000178A118E138E1F910F91FF90EF90DF90AA
:102880000895CF93DF939C01462FA62FB0E0EC0173
:10289000CA0FDB1F8881882371F18981882359F54C
:1028A000FD01EE0FFF1FE20FF31F8F8190E0880FF5
:1028B000991F0580F681E02DE80FF91F859194910D
:1028C0005FEF8F3F950711F4188215C09A87149611
:1028D000AA0FBB1FA20FB31F90E0880F991FED91A5
:1028E000FC91E80FF91F65917491C9010E941514BC
:1028F0008F818F5F8F83DF91CF91089560E00E9479
:10290000411408955F926F927F928F929F92AF923F
:10291000BF92CF92DF92EF92FF920F931F93CF93CC
:10292000DF937C01562EC62EDD24BC016C0D7D1D6F
:10293000DB0111968C911197882309F4A7C0539657
:102940008C91882309F0A2C08601000F111F0E0D83
:102950001F1DE6012896CC0FDD1FCE0DDF1DE8817F
:10296000F981EE0FFF1FD8011B964D915C911C97CA
:10297000E40FF51F259134912115310509F049C067
:10298000FB018785813031F419821882FA01259183
:1029900034913FC0DB0111961C9211978C918823D2
:1029A00091F0C701652D0E94411488819981880F9B
:1029B000991FD8011B96ED91FC911C97E80FF91F08
:1029C0002591349126C0C701652D0E94F1135EC088
:1029D00086E0369527958A95E1F76F70422F4F7103
:1029E00005E0369527950A95E1F72051C701052D99
:1029F0000E94951388819981019699838883880F15
:102A0000991FD501ED91FC91E80FF91F25913491A3
:102A100014C04601880C991CA8E06A2E712C6C0C1D
:102A20007D1CE301CC0FDD1FCE0DDF1D5701A80C6F
:102A3000B91CEBE0F0E0AE0EBF1EB90176956795CC
:102A40007695679520FDC4CFF701EC0DFD1D862F0F
:102A50008F73828B338B13A28E0C9F1CD4019296A2
:102A60001C921E92919781E0858B23E436E0C20E82
:102A7000D31ED6018C93168AF301EE0FFF1FEE0DC5
:102A8000FF1D80819181019691838083DF91CF9199
:102A90001F910F91FF90EF90DF90CF90BF90AF907C
:102AA0009F908F907F906F905F90089560E00E945C
:102AB00082140895DF92EF92FF920F931F93CF93AA
:102AC000DF937C01062F10E0DC01A00FB11F5596AB
:102AD0008C915597882309F4F8C053968C9153979D
:102AE000882321F4C7010E94F113EFC0815053964F
:102AF0008C93539793968C919397882309F04BC0AE
:102B0000E801CC0FDD1FCE0DDF1D89A19AA1019632
:102B1000880F991FED8DFE8DE80FF91F8591949117
:102B2000282F277094962C939497AC01F3E0569538
:102B30004795FA95E1F79A0136952795892F9927B8
:102B40008695869595968C9395972F73F70182813C
:102B5000289F202D112493962C939397F801E95BDD
:102B6000F94F4170408389A19AA101969AA389A344
:102B70005F962C915F9730E08217930760F09096F4
:102B80008C91882329F0281B31093AA329A303C07B
:102B9000C7010E94F113F701E00FF11F83A18150DB
:102BA00083A336893F5F368B428925A1240F828516
:102BB000280F618D662311F4D22E0CC0832F992724
:102BC00087FD909570E00E94051F828D869FD02C16
:102BD0001124D20EF701E00FF11F248967896623C3
:102BE00071F0772767FD7095832F992787FD909562
:102BF0000E94051F808D869F802D1124280FF701CC
:102C0000E00FF11F638D662389F0832F992787FDDD
:102C1000909570E00E94051FCB0162E070E00E9479
:102C2000051F948D899F802D1124280F4F3331F07B
:102C3000822F2A300CF089E0482F87FD40E0F8947D
:102C40008D2D992787FD9095849664E270E00E940F
:102C5000051FE82FFF27E7FDF095E75BFB4FE491A9
:102C6000D801AC5BB94FEC93F701E00FF11F26A13F
:102C700030E084A1992787FD9095B901689F900164
:102C8000699F300D789F300D1124F701838190E00A
:102C9000B901689F9001699F300D789F300D112414
:102CA000842F992787FD9095FC012E9FC0012F9FAF
:102CB000900D3E9F900D1124F801EB5BF94F80833E
:102CC0000A5B194FF80180837894DF91CF911F91AF
:102CD0000F91FF90EF90DF90089560E00E945A15E9
:102CE000089560914506662381F1809142068F5FC9
:102CF0008093420690914406891738F130E0809124
:102D00004306882309F431E03093430610924206CB
:102D1000809147068823A9F080919F0323E4829F36
:102D2000C0011124895B80939F0390E070E00E94B2
:102D3000F11E8093460605C0809146068093B4003C
:102D400008953323C9F780E0F9CF08951F920F92B9
:102D50000FB60F9211242F933F934F935F936F936E
:102D60007F938F939F93AF93BF93EF93FF930E94B3
:102D70007116FF91EF91BF91AF919F918F917F91CC
:102D80006F915F914F913F912F910F900FBE0F90D8
:102D90001F90189561E474E040E00E9415140895B6
:102DA00063E374E040E00E9415140895FC01862F4F
:102DB000648170E06F5F7F4F992787FD90950E9437
:102DC000051F838308950F93FC0181E0828384E0D3
:102DD00086A38DE694E096878587CF0161E040E089
:102DE00020E000E00E94951383E061E070E00E9423
:102DF0001C18E1EBF0E08081887F81608083F8948B
:102E000010928000E1E8F0E01082109285001092AC
:102E1000840088E191E0909389008093880080810C
:102E200088608083808181608083EFE6F0E080812C
:102E30008260808378940F9108951F920F920FB64D
:102E40000F9211242F933F938F939F93AF93BF9330
:102E500080914C0690914D06A0914E06B0914F0680
:102E6000309150060196A11DB11D232F2D5F2D37E6
:102E700020F02D570196A11DB11D2093500680937F
:102E80004C0690934D06A0934E06B0934F0680914A
:102E9000480690914906A0914A06B0914B060196CA
:102EA000A11DB11D8093480690934906A0934A0640
:102EB000B0934B06BF91AF919F918F913F912F910E
:102EC0000F900FBE0F901F9018958FB7F894209118
:102ED0004C0630914D0640914E0650914F068FBFE3
:102EE000B901CA0108959FB7F8942091480630911E
:102EF000490640914A0650914B0686B5A89B06C0EC
:102F00008F3F21F02F5F3F4F4F4F5F4F9FBF542F99
:102F1000432F322F2227280F311D411D511D82E0E2
:102F2000220F331F441F551F8A95D1F7B901CA01DB
:102F30000895EF92FF920F931F93CF93DF937B013E
:102F40008C010E947317EB010EC00E9473176C1B5B
:102F50007D0B685E7340C8F30894E108F10801092D
:102F60001109C851DC4FE114F1040105110569F79D
:102F7000DF91CF911F910F91FF90EF90089578947A
:102F800084B5826084BD84B5816084BD85B582606E
:102F900085BD85B5816085BDEEE6F0E0808181600C
:102FA0008083E1E8F0E0108280818260808380810C
:102FB00081608083E0E8F0E0808181608083E1EBE4
:102FC000F0E0808184608083E0EBF0E080818160CC
:102FD0008083EAE7F0E08081846080838081826082
:102FE000808380818160808380818068808310926B
:102FF000C1000895982F8E3008F09E5097708091F0
:10300000A2038295880F880F807C892B80937C0097
:1030100080917A00806480937A0080917A0086FDA6
:10302000FCCF2091780040917900942F80E030E02F
:10303000282B392BC90108951F93CF93DF93182FA5
:10304000EB0161E00E947C18209709F44AC0CF3F51
:10305000D10509F449C0E12FF0E0E154FB4F849120
:103060008330C1F0843028F4813051F08230B1F5E2
:103070000CC0863019F1873049F1843079F514C0DD
:1030800084B5806884BDC7BD33C084B5806284BD0B
:10309000C8BD2EC080918000806880938000D0934E
:1030A0008900C093880024C0809180008062809352
:1030B0008000D0938B00C0938A001AC08091B0002A
:1030C00080688093B000C093B30012C08091B000BC
:1030D00080628093B000C093B4000AC0C038D105AC
:1030E0001CF4812F60E002C0812F61E00E94E8188B
:1030F000DF91CF911F910895CF93DF93482F50E038
:10310000CA0185559B4FFC01349149565B4FFA012A
:103110008491882369F190E0880F991FFC01E7589A
:10312000FB4FA591B491FC01ED57FB4FC591D49194
:10313000662351F42FB7F8948C91932F909589239F
:103140008C93888189230BC0623061F42FB7F89487
:103150008C91932F909589238C938881832B8883DE
:103160002FBF06C09FB7F8948C91832B8C939FBF81
:10317000DF91CF910895833071F0843028F481304D
:10318000A1F0823021F514C08630B1F08730D1F043
:103190008430E9F404C0809180008F7703C080916F
:1031A00080008F7D80938000089584B58F7702C062
:1031B00084B58F7D84BD08958091B0008F77809312
:1031C000B00008958091B0008F7D8093B000089585
:1031D000FF920F931F93F62E482F50E0CA0181549F
:1031E0009B4FFC012491CA0185559B4FFC01149112
:1031F00049565B4FFA0104910023C9F0222319F0CC
:10320000822F0E94BB18E02FF0E0EE0FFF1FED575A
:10321000FB4FA591B4919FB7F894FF2021F48C91B6
:103220001095812302C08C91812B8C939FBF1F919D
:103230000F91FF9008950F931F93482F50E0CA01FC
:1032400081549B4FFC012491CA0185559B4FFC0181
:10325000049149565B4FFA011491112319F420E0AF
:1032600030E015C0222319F0822F0E94BB18812F55
:1032700090E0880F991F83579B4FFC01A591B49153
:103280008C9120E030E0802311F021E030E0C90192
:103290001F910F91089508951F920F920FB60F92EC
:1032A00011242F933F934F938F939F93EF93FF930B
:1032B0008091C00082FD1DC04091C6002091910602
:1032C000309192062F5F3F4F2F733070809193069D
:1032D000909194062817390771F0E0919106F091CA
:1032E0009206EF5AF94F408330939206209391064D
:1032F00002C08091C600FF91EF919F918F914F91F5
:103300003F912F910F900FBE0F901F901895E09155
:10331000E506F091E606E05CFF4F819191912081F6
:103320003181821B930B8F739070892B11F00E9457
:103330004B1908951F920F920FB60F9211242F93DD
:103340003F938F939F93EF93FF932091D5063091F6
:10335000D6068091D7069091D8062817390731F400
:103360008091C1008F7D8093C10014C0E091D70689
:10337000F091D806EB56F94F20818091D7069091B5
:10338000D80601968F7390709093D8068093D706D5
:103390002093C600FF91EF919F918F913F912F91C4
:1033A0000F900FBE0F901F901895AF92BF92DF92B3
:1033B000EF92FF920F931F93CF93DF93EC017A016B
:1033C0008B01DD24403081EE580780E0680780E003
:1033D000780711F0DD24D39491E0A92EB12CEC896B
:1033E000FD89DD2069F0C50108A002C0880F991F82
:1033F0000A94E2F7808360E079E08DE390E005C015
:10340000108260E874E88EE190E0A80197010E94C4
:10341000181F2150304040405040569547953795F1
:10342000279580E12030380720F0DD2011F0DD24E1
:10343000D6CFE889F9893083EA89FB89208319A2EC
:10344000EE89FF89408121E030E0C9010C8C02C087
:10345000880F991F0A94E2F7482B4083EE89FF8971
:103460004081C9010D8C02C0880F991F0A94E2F7B0
:10347000482B4083EE89FF894081C9010E8C02C030
:10348000880F991F0A94E2F7482B4083EE89FF8941
:1034900080810F8C02C0220F331F0A94E2F720951F
:1034A00028232083DF91CF911F910F91FF90EF9000
:1034B000DF90BF90AF900895DC011C96ED91FC91D8
:1034C0001D97E05CFF4F2191319180819181281BF4
:1034D000390B2F733070C9010895DC011C96ED91F2
:1034E000FC911D97E05CFF4F20813181E054F0405A
:1034F000DF01AE5BBF4F8D919C9111972817390763
:1035000019F42FEF3FEF07C08D919C91E80FF91F41
:103510008081282F30E0C9010895DC011C96ED91CF
:10352000FC911D97E05CFF4F20813181E054F04019
:10353000DF01AE5BBF4F8D919C9111972817390722
:1035400019F42FEF3FEF10C08D919C911197E80F68
:10355000F91F20818D919C91119701968F73907026
:1035600011969C938E9330E0C9010895DC019196E9
:103570008C919197882339F05496ED91FC91559751
:10358000808186FFF9CF91961C920895CF93DF93A7
:10359000EC01EE85FF85E05CFF4F20813181E05436
:1035A000F0402F5F3F4F2F733070DF01AE5BBF4F96
:1035B0008D919C91119728173907D1F3E05CFF4F4B
:1035C00080819181E054F040E80FF91F6083EE851F
:1035D000FF85E05CFF4F31832083EE89FF892081E6
:1035E00081E090E00F8C02C0880F991F0A94E2F7E7
:1035F000282B208381E089A3EC89FD898081806468
:10360000808381E090E0DF91CF9108951092DC06F5
:103610001092DB0688EE93E0A0E0B0E08093DD0638
:103620009093DE06A093DF06B093E0068FEA93E066
:103630009093DA068093D90681E596E09093E606AA
:103640008093E50685E996E09093E8068093E70687
:1036500085EC90E09093EA068093E90684EC90E094
:103660009093EC068093EB0680EC90E09093EE064E
:103670008093ED0681EC90E09093F0068093EF0646
:1036800082EC90E09093F2068093F10686EC90E055
:103690009093F4068093F30684E08093F50683E02C
:1036A0008093F60687E08093F70685E08093F8061E
:1036B00081E08093F9060895CF93DF930E94BF17AE
:1036C0000E944307C7E8D9E10E942B072097E1F346
:1036D0000E948719F9CFCF92DF92EF92FF920F935A
:1036E0001F93CF93DF937C016B018A01C0E0D0E090
:1036F0000FC0D6016D916D01D701ED91FC91019044
:10370000F081E02DC7010995C80FD91F0150104065
:103710000115110571F7CE01DF91CF911F910F9126
:10372000FF90EF90DF90CF900895EF92FF920F936C
:103730001F93CF93DF937C018B01C0E0D0E0F801B1
:103740000F5F1F4F6491662359F0D701ED91FC91F3
:103750000190F081E02DC7010995C80FD91FEFCF67
:10376000CE01DF91CF911F910F91FF90EF900895BF
:10377000DC01ED91FC910190F081E02D0995089517
:10378000EF92FF920F931F938C01DC01ED91FC915E
:103790000190F081E02D6DE009957C01D801ED915B
:1037A000FC910190F081E02DC8016AE009959C012F
:1037B0002E0D3F1DC9011F910F91FF90EF900895AD
:1037C000EF92FF920F931F937C010E94951B8C0137
:1037D000C7010E94C01B9C01200F311FC9011F910E
:1037E0000F91FF90EF900895CF93DF93EC01611557
:1037F000710519F420E030E00FC0DB010D900020CE
:10380000E9F71197A61BB70BE881F9810280F381D4
:10381000E02DAD0109959C01C901DF91CF9108957B
:103820004F925F927F928F929F92AF92BF92CF9270
:10383000DF92EF92FF920F931F93DF93CF93CDB759
:10384000DEB7A1970FB6F894DEBF0FBECDBF2C0137
:10385000742ECB01223008F42AE019A231E2C32EE3
:10386000D12CCC0EDD1E822E9924AA24BB24672DD8
:10387000752FA50194010E94181F79018A01C801C2
:10388000B701A50194010E94C61E472D461B08944E
:10389000C108D1084A3014F4405D01C0495CF6010A
:1038A0004083E114F1040105110521F07E2C5F2D08
:1038B000C801DDCFC201B6010E94F41BA1960FB66C
:1038C000F894DEBF0FBECDBFCF91DF911F910F9156
:1038D000FF90EF90DF90CF90BF90AF909F908F9030
:1038E0007F905F904F900895DC012115310541F4E0
:1038F000ED91FC910190F081E02D642F09950895E0
:103900000E94101C0895EF92FF920F931F937C0169
:103910000E94741C8C01C7010E94C01B9C01200FD7
:10392000311FC9011F910F91FF90EF900895EF9201
:10393000FF920F931F939A017B0100E010E0B80102
:10394000A7010E94741C1F910F91FF90EF900895A2
:10395000EF92FF920F931F939A01E62EFF2400E04F
:1039600010E0B801A7010E94741C1F910F91FF90F5
:10397000EF900895CF92DF92EF92FF920F931F93F3
:103980006C01E62E9A01FF2400E010E0B801A701C7
:103990000E94741C8C01C6010E94C01B080F191FD5
:1039A000C8011F910F91FF90EF90DF90CF90089585
:1039B0000E94F41B0895EF92FF920F931F937C01D6
:1039C0000E94F41B8C01C7010E94C01B080F191F25
:1039D000C8011F910F91FF90EF9008952F923F9291
:1039E0004F925F926F927F928F929F92AF92BF920F
:1039F000CF92DF92EF92FF920F931F93DF93CF93BB
:103A0000CDB7DEB73B014C0119012A016D897E89D2
:103A10008F89988D6A197B098C099D09621A730A2E
:103A2000840A950AA40193010E94C61EE218F308B5
:103A300004091509A80197010E943A1F2A0D3B1D90
:103A40004C1D5D1DB901CA01CF91DF911F910F91EE
:103A5000FF90EF90DF90CF90BF90AF909F908F90AE
:103A60007F906F905F904F903F902F9008950097B8
:103A700029F0BC0180E090E00E94B31F08955058E7
:103A8000BB27AA270ED0E5C0D6D030F0DBD020F07F
:103A900031F49F3F11F41EF4CBC00EF4E095E7FB28
:103AA000C1C0E92FE7D080F3BA1762077307840714
:103AB000950718F071F49EF5FFC00EF4E0950B2EFB
:103AC000BA2FA02D0B01B90190010C01CA01A00170
:103AD0001124FF27591B99F0593F50F4503E68F1CB
:103AE0001A16F040A22F232F342F4427585FF3CF0C
:103AF000469537952795A795F0405395C9F77EF4DD
:103B00001F16BA0B620B730B840BBAF09150A1F025
:103B1000FF0FBB1F661F771F881FC2F70EC0BA0FAB
:103B2000621F731F841F48F4879577956795B79533
:103B3000F7959E3F08F0B3CF9395880F08F099272B
:103B4000EE0F97958795089504D06894B111B5C08C
:103B5000089598D088F09F5790F0B92F9927B751C2
:103B6000A0F0D1F0660F771F881F991F1AF0BA9541
:103B7000C9F712C0B13081F09FD0B1E008959CC068
:103B8000672F782F8827B85F39F0B93FCCF3869537
:103B900077956795B395D9F73EF490958095709594
:103BA00061957F4F8F4F9F4F0895E89409C097FB11
:103BB0003EF490958095709561957F4F8F4F9F4F04
:103BC0009923A9F0F92F96E9BB279395F695879548
:103BD00077956795B795F111F8CFFAF4BB0F11F40B
:103BE00060FF1BC06F5F7F4F8F4F9F4F16C08823B2
:103BF00011F096E911C0772321F09EE8872F762FE8
:103C000005C0662371F096E8862F70E060E02AF028
:103C10009A95660F771F881FDAF7880F9695879514
:103C200097F9089597F99F6780E870E060E008953C
:103C30009FEF80EC089500240A94161617061806C4
:103C40000906089500240A941216130614060506A0
:103C50000895092E0394000C11F4882352F0BB0F31
:103C600040F4BF2B11F460FF04C06F5F7F4F8F4F94
:103C70009F4F089557FD9058440F551F59F05F3FCF
:103C800071F04795880F97FB991F61F09F3F79F07E
:103C900087950895121613061406551FF2CF469500
:103CA000F1DF08C0161617061806991FF1CF869582
:103CB0007105610508940895E894BB276627772766
:103CC000CB0197F908950BD0C4CFB5DF28F0BADF48
:103CD00018F0952309F0A6CFABCF1124EECFCADFA1
:103CE000A0F3959FD1F3950F50E0551F629FF0010F
:103CF000729FBB27F00DB11D639FAA27F00DB11D68
:103D0000AA1F649F6627B00DA11D661F829F2227F0
:103D1000B00DA11D621F739FB00DA11D621F839F77
:103D2000A00D611D221F749F3327A00D611D231F4D
:103D3000849F600D211D822F762F6A2F11249F579B
:103D400050408AF0E1F088234AF0EE0FFF1FBB1FBE
:103D5000661F771F881F91505040A9F79E3F51055D
:103D600070F060CFAACF5F3FECF3983EDCF386950E
:103D700077956795B795F795E7959F5FC1F7FE2B08
:103D8000880F911D9695879597F90895629FD001A8
:103D9000739FF001829FE00DF11D649FE00DF11D06
:103DA000929FF00D839FF00D749FF00D659FF00DB5
:103DB0009927729FB00DE11DF91F639FB00DE11DA2
:103DC000F91FBD01CF0111240895991B79E004C0AA
:103DD000991F961708F0961B881F7A95C9F780954A
:103DE0000895AA1BBB1B51E107C0AA1FBB1FA61742
:103DF000B70710F0A61BB70B881F991F5A95A9F794
:103E000080959095BC01CD01089597FB092E07265A
:103E10000AD077FD04D0E5DF06D000201AF47095B3
:103E200061957F4F0895F6F7909581959F4F08957E
:103E3000A1E21A2EAA1BBB1BFD010DC0AA1FBB1FAE
:103E4000EE1FFF1FA217B307E407F50720F0A21B20
:103E5000B30BE40BF50B661F771F881F991F1A948D
:103E600069F760957095809590959B01AC01BD01B7
:103E7000CF01089597FB092E05260ED057FD04D0DB
:103E8000D7DF0AD0001C38F4509540953095219525
:103E90003F4F4F4F5F4F0895F6F79095809570957F
:103EA00061957F4F8F4F9F4F0895EE0FFF1F059035
:103EB000F491E02D0994A0E0B0E0E1E6FFE10C947C
:103EC000C41FEC01A880B980CA80DB80A114B104B2
:103ED000C104D10441F484E2A82E89EDB82E8BE50B
:103EE000C82E87E0D82EC601B5012DE133EF41E0A1
:103EF00050E00E943A1F27EA31E440E050E00E947F
:103F0000C61E7B018C01C601B5012DE133EF41E0F6
:103F100050E00E943A1FCA01B9012CEE34EF4FEF76
:103F20005FEF0E94C61E6E0D7F1D801F911F97FFC1
:103F300004C06150704080409048688379838A83D0
:103F40009B839B01AC015F77B901CA01CDB7DEB796
:103F5000EAE00C94E01F0E945B1F08958CED91E055
:103F60000E945B1F08956093DC017093DD018093D4
:103F7000DE019093DF0108952F923F924F925F925E
:103F80006F927F928F929F92AF92BF92CF92DF9269
:103F9000EF92FF920F931F93CF93DF93CDB7DEB7CE
:103FA000CA1BDB0B0FB6F894DEBF0FBECDBF099462
:103FB0002A88398848885F846E847D848C849B84B9
:103FC000AA84B984C884DF80EE80FD800C811B81C7
:103FD000AA81B981CE0FD11D0FB6F894DEBF0FBEF6
:0A3FE000CDBFED010895F894FFCF66
:103FEA0074696C653A2000426F6D6220583A00206D
:103FFA00593A00427265616B61626C652052696769
:10400A00687400427265616B61626C65204C65661A
:10401A007400427265616B61626C65205570004282
:10402A007265616B61626C6520446F776E00436FE5
:10403A006C6C6973696F6E202D20436F6C3A002097
:10404A00526F773A00426F6D62206578706C6F64C8
:10405A00650053657420626F6D6220783A0020799A
:10406A003A000A446562756720426F6D6265726D37
:10407A00616E0A00506C6179657220583A000A50E4
:10408A006C6179657220593A000A52414D20467294
:10409A0065653A000A4350553A20000A566572731C
:1040AA00696F6E3A20312E3161004C6F6164696E1E
:1040BA00672E2E2E004C4F4144455200010000004D
:1040CA0001010101010101010101010101010101D6
:1040DA0001010101000100000000000000000202CD
:1040EA0000000000000000000100010000000000C4
:1040FA0000000002020000000000000000010001B0
:10410A0000000000000000000202000000000000A1
:10411A00000001000100000100000100000202008D
:10412A000001000001000001000100000000000081
:10413A00000002020000000000000000010001006F
:10414A000000000000000002020000000000000061
:10415A00000100010000010000010000020200004D
:10416A000100000100000100010000000000000041
:10417A00000202000000000000000001000100002F
:10418A000000000000000202000000000000000021
:10419A00010001000000000000000002020000000F
:1041AA0000000000000100010101010101010101FB
:1041BA0001010101010101010101010000000000EA
:1041CA0000000000000000000000000000000000E5
:1041DA0000000000000000000000000000000000D5
:1041EA0000000000000000000000000000000000C5
:1041FA0000000000000000000000000000000000B5
:10420A0000000000000000000000000000000000A4
:10421A000000000000000000000000000000000094
:10422A000000000000000000000000000000000084
:10423A000000000000000000000000000000000074
:10424A000000000000000000000000000000000064
:10425A000000000000000000000000000000000054
:10426A000000000000000000000000000000000044
:10427A00000000000000000000040404040202011F
:10428A00FB060100000000070D6B1B00000000C6C2
:0C429A001A6B1B5C1A8D1A6D1AB61A0004
:00000001FF
