:100000000C946F020C9497020C9497020C94970234
:100010000C9497020C9497020C9497020C949702FC
:100020000C9497020C9497020C9497020C94F51779
:100030000C9497020C9497020C9497020C949702DC
:100040000C9472180C9497020C94A11A0C94EF1A49
:100050000C9497020C9497020C9497020C949702BC
:100060000C9497020C949702040460F0F060401E18
:100070000000000000000000000000000018000068
:1000800000000000007E00000000001FE1E2000010
:100090000000007FF9C30000000001FFFF830000A3
:1000A000000003FFFF800000000007FFFF8000004A
:1000B00000000FFFFFC0000000000FE03FC0000085
:1000C00000001FE78FE0000000001FE7CFE0000006
:1000D00000001FE7CFE0000000003FE7CFF0000086
:1000E00000003FE79FF0000000003FE03FF000000D
:1000F00000003FE78FF0000000003FE7E7F000005E
:1001000000003FE7E7F0000000003FE7E7F00000F5
:1001100000001FE7C7E0000000001FE78FE00000BD
:1001200000001FE03FE0000000000FFFFFC00000E4
:1001300000000FFFFFC00000000007FFFF8000006D
:10014000000003FFFF000000000001FFFE000000B0
:100150000000007FF80000000000001FE000000029
:10016000426F6D6265726D616E206279204C696DBF
:100170006974656400426F6D6265726D616E2062C4
:1001800079204C696D697465640003053F213F0A5D
:10019000100A1208120E1C0E0C1E0C141A14161F34
:1001A000161E131E1E1B1E1E1F1E3F213F3A2F3AF6
:1001B000173D173F213F181F02040A041F0E0404B5
:1001C0000E1F0A1F0A0E0E1F04110E2E252E2F2A97
:1001D0002E262929021F02081F08150E04040E15D9
:1001E0000E15151B151B040604040C04000000006A
:1001F00017000300031F0A1F16371A1904130A15E4
:100200003A000300000E11110E000A040A040E0445
:100210000030000404040010001804031F111F1212
:100220001F101D151711151F07041F17151D1F156A
:100230001D01011F1F151F17151F000A00003200A6
:10024000040A110A0A0A110A040115020E11171EE6
:10025000051E1F150A0E110A1F110E1F15111F056D
:10026000010E111D1F041F111F1108100F1F041B69
:100270001F10101F061F1E040F0E110E1F09060E61
:10028000112E1F051A121509011F011F101F0F182B
:100290000F1F0C1F1B041B031C03191513001F1138
:1002A000030418111F000201022020200001020C8B
:1002B000121E1F120C0C12120C121F0C1A14041E08
:1002C00005242A1E1F021C141D1020201D1F0814A7
:1002D000111F101E041E1E021C0C120C3E0A040CE0
:1002E000123E1E040214160A020F120E101E0E10E9
:1002F0000E1E081E120C1226281E322A26041E214B
:10030000001F00211E040102013F213F0A4E6F2001
:1003100053442063617264206F720A6E6F204C4FE9
:10032000414445522E4845580A0A153A45786974A1
:10033000001D20466C617368696E670A20206C6F2F
:10034000616465722E2E2E0A0A444F4E27542054A3
:1003500055524E204F464621004E4F2042415454A4
:100360004552590A0A504C454153450A5455524E7C
:10037000204F464600177361766500166261636B15
:10038000001574797065000A0A0A153A6F6B617975
:1003900020163A6564697400596F7520656E74653E
:1003A0007265640A00540A03E181867F3E186D83FA
:1003B0000F0F0E0183866033186DC3198F1803C3A6
:1003C0008E6033186DE330CF1803C39E603630CD96
:1003D000E360CF3006C79E7E3E30CDB360CF300C99
:1003E000C6F6603330D9B660CF33CFCCF66061B09B
:1003F000DB1E60CF30D86CE6C061B0DB1E618F19A8
:10040000986CC6C063B19B0E330F0FB078C6FF7EE9
:100410001F1B061E0F1753440016137800161314E3
:10042000001510200015201000000005008930087C
:100430000238024978681400004500680100000590
:10044000006801380100000500380168010000F66D
:10045000E8DBCFC3B8AEA49B928A827B746E6862DD
:100460005C57524E4945413E3A3734312E2C2927AC
:1004700025232177047B040101F7030101FF030019
:10048000000000240027002A0000000000250028AA
:10049000002B0000000000230026002900040404B3
:1004A000040404040402020202020203030303031D
:1004B00003010204081020408001020408102001FA
:1004C00002040810200000000700020100000304DD
:1004D00006000000000000000000EB025B1C11247D
:1004E0001FBECFEFD8E0DEBFCDBF13E0A0E0B1E08C
:1004F000E4EFF3E402C005900D92A839B107D9F7F3
:1005000016E0A8E9B3E001C01D92A53FB107E1F7ED
:1005100014E0CEEDD4E004C02297FE010E945C21DD
:10052000CA3DD107C9F70E94B11C0C94F8210C9464
:10053000000084E08093350480933604809338046F
:100540008093370482E080933A048093310480934F
:100550003904809332041092330408958CE380931D
:100560003E0480E180933F0484E0809341048093C3
:10057000400481E08093430480934204089586956B
:10058000869590E0AA2797FDA095BA2FBC01CD01D2
:100590000E94181F20E030E040E05FE30E94811ECF
:1005A0000E94E51EDC01CB0108958695869590E0BA
:1005B000AA2797FDA095BA2FBC01CD010E94181F54
:1005C00020E030E040E05FE30E94811E0E94E51ED3
:1005D000DC01CB010895E8E9F3E084E8DF011D9236
:1005E0008A95E9F71092E7031092E60384E893E016
:1005F0009093E5038093E4030895FF920F931F9374
:10060000082FF62E83ED96E060E071E00E94191E3F
:1006100010E085E190E09801289F8001299F100D4E
:10062000389F100D11240F0D111D0D531E4F83ED1A
:1006300096E0F80160814AE050E00E94FB1DF8015D
:100640000081023028F0023011F481E002C001C0C4
:1006500080E01F910F91FF9008958DEB93E00E9431
:100660001F188CE380933E0480E180933F0408953B
:100670002F923F924F925F926F927F928F929F92B2
:10068000AF92BF92CF92DF92EF92FF920F931F93A0
:10069000DF93CF93CDB7DEB729970FB6F894DEBFBF
:1006A0000FBECDBF9C838B837E836D83FC018081D5
:1006B0000E94BF02082F10E0ED81FE8180810E9420
:1006C000D50290E0AC014250504098012E5F3F4F60
:1006D00002960250104017FF02C000E010E029010E
:1006E000263131051CF015E1412E512C9987888760
:1006F0000D9724F02CE030E039872887BA0157FFA6
:1007000002C060E070E0662E0F8366C03CE03615E4
:1007100008F461C07F80FC01EE0FFF1FEE0FFF1F8A
:10072000FA83E98325E130E0829F1001839F300C3A
:10073000929F300C112449C035E1371508F444C0AC
:10074000F101EE0DFF1DED53FE4F80818823E1F195
:10075000EB81FC816081ED81FE8140812091380434
:1007600000913704EE0CFF1CEE0CFF1C88E993E0AF
:1007700070E050E030E010E0C980DA80F4E0AF2EA5
:10078000B12CE4E08E2E912C0E949E108823E1F083
:1007900083ED96E067E071E00E94191E83ED96E01C
:1007A000672D4AE050E00E94E91D83ED96E068E184
:1007B00071E00E94191E83ED96E0662D4AE050E03C
:1007C0000E94FB1D81E011C07394E72CFF24E41408
:1007D000F5040CF4B1CF6394862D90E0288539851B
:1007E000821793070CF492CF80E029960FB6F89405
:1007F000DEBF0FBECDBFCF91DF911F910F91FF9054
:10080000EF90DF90CF90BF90AF909F908F907F90B0
:100810006F905F904F903F902F900895CF93DF930C
:10082000EC018B8140E350E0481B51099D818A8196
:10083000282F30E0290F311D241735070CF4A901AA
:100840004A83BE016E5F7F4FCE0101960E9438033E
:10085000882381F08B8140E350E0481B51098A8155
:10086000282F30E08D81281B3109241735070CF41F
:10087000A9014A83DF91CF910895CF93DF93EC01D3
:100880008A81282F30E08D81281B310937FF02C073
:1008900020E030E02A83BE016E5F7F4FCE010196DB
:1008A0000E943803882321F08A819D81890F8A83E1
:1008B000DF91CF910895CF93DF93EC018C8144E5D4
:1008C00050E0481B51099E818981282F30E0290F73
:1008D000311D241735070CF4A9014983BE016E5F51
:1008E0007F4FCE0101960E943803882381F08C81CE
:1008F00044E550E0481B51098981282F30E08E8162
:10090000281B3109241735070CF4A9014983DF910D
:10091000CF910895CF93DF93EC018981282F30E0A8
:100920008E81281B310937FF02C020E030E0298387
:10093000BE016E5F7F4FCE0101960E94380388236F
:1009400021F089819E81890F8983DF91CF9108955C
:100950000F93CF93DF93CCE1D4E088818823C9F152
:100960006091060470910704809108049091090435
:1009700029E130E040E050E00E941D216115710541
:100980008105910531F169816F5F84EE93E04A81C1
:1009900022E001E00E94E00A4A814F5F84EE93E08A
:1009A000698121E002E00E94E00A69816F5F4A816B
:1009B0004D5F84EE93E022E001E00E94E00A69814D
:1009C0006D5F4A814F5F84EE93E021E002E00E9478
:1009D000E00A279684E0C133D80709F0BECFDF9143
:1009E000CF910F910895AF92BF92DF92EF92FF9255
:1009F0000F931F93CF93DF93EE24FF24DD2405E1B3
:100A0000A02EB12C22C08881813049F484EE93E07D
:100A1000612F4D2D24E004E00E94E00A0AC08230DC
:100A200041F484EE93E0612F4D2D24E004E00E9418
:100A3000160B21961C5F143531F70894E11CF11C4C
:100A400084E0D80E80E3D81659F0EA9CE001EB9CD4
:100A5000D00DFA9CD00D1124CD53DE4F10E0D3CF32
:100A6000DF91CF911F910F91FF90EF90DF90BF909A
:100A7000AF90089580913B04882311F40E94F30401
:100A80000895EF92FF920F931F93E82FF0E0E41B7D
:100A9000F10970E0621B7109CB01889FB001899F49
:100AA000700D989F700D1124EE9F9001EF9F300DF7
:100AB000FE9F300D1124620F731F882777FD8095EC
:100AC000982F0E94181F0E9486207B018C0120E035
:100AD00030E040E050E00E941B20181624F017FB85
:100AE000109517F91095C801B7010E94531F0E9475
:100AF000EA1EDC01CB011F910F91FF90EF9008954A
:100B00006091060470910704809108049091090493
:100B100029E130E040E050E00E941D21611571059F
:100B20008105910591F080913E0460913F044091D0
:100B30003504209136040E9441058E3120F481E075
:100B400080933C0402C010923C0480913C048130AC
:100B500011F59091350480913E04891728F48DE3B6
:100B600094E00E945B0406C0981720F48DE394E0A3
:100B70000E948A049091360480913F04891728F4DA
:100B80008DE394E00E940E040895981720F48DE3FD
:100B900094E00E943D04089584EE93E060913E0449
:100BA00040913F0428E630E00E94FD0C08958091BA
:100BB0003B04882309F44AC084EE93E06EE171E0BF
:100BC0000E94191E84EE93E060E371E00E94191EFA
:100BD00084EE93E0609135044AE050E00E94E91D04
:100BE00084EE93E06AE371E00E94191E84EE93E0C4
:100BF000609136044AE050E00E94E91D84EE93E0E3
:100C000065E471E00E94191E88E993E00E94EE0FEE
:100C1000BC0184EE93E04AE050E00E94D81D84EECF
:100C200093E060E571E00E94191E88E993E00E945C
:100C3000DF0F682F84EE93E04AE050E00E94E91D48
:100C400084EE93E067E571E00E94191E08950F930A
:100C50001F9303ED16E0C80140E855E260E070E044
:100C60000E942A1BC80166E671E00E941C1E08E96A
:100C700013E0C8010E947D14C8010E943112C8010E
:100C800065E10E94CD0F81E08093B003C80165E764
:100C900071E04EE650E00E941F1384EE93E06AE894
:100CA00071E00E946B0D10921C04109223041092AC
:100CB0002A040E94AE020E9499021F910F9108958A
:100CC0008DEB93E00E941F180E9427060895CF9293
:100CD000DF92EF92FF920F931F93CF93DF93162F24
:100CE0000E94BF02D82E812F0E94D502182F80911A
:100CF00035040E94BF02C82E809136040E94D5029E
:100D0000082F83ED96E061E771E00E94191E83EDE4
:100D100096E06D2D4AE050E00E94E91D83ED96E0DB
:100D200069E771E00E94191E83ED96E0612F4AE0A9
:100D300050E00E94FB1D8DEB93E00E9419182C2DB2
:100D400030E0ED2CFF24E70121962C173D0729F018
:100D5000C70101972817390711F4011791F0CD1435
:100D600099F4402F50E0212F30E0C9010197481736
:100D7000590739F02F5F3F4F4217530711F0011702
:100D800019F40E946006B1C080913E040E94BF0227
:100D9000082F80913F040E94D502682F202F30E059
:100DA0002C173D0729F0C70101972817390711F4BF
:100DB000611791F00D1599F4462F50E0212F30E086
:100DC000C90101974817590739F02F5F3F4F421764
:100DD000530711F0611719F40E942D0386C06D2D81
:100DE0006F5F812F0E94FD028823D1F083ED96E092
:100DF0006DE771E00E941C1E212F30E085E190E03C
:100E0000289FF001299FF00D389FF00D1124EC0F61
:100E1000FD1FED53FE4F10828DEB93E00E942518CD
:100E20006D2D6150812F0E94FD028823D1F083ED4A
:100E300096E06DE871E00E941C1E212F30E085E1F4
:100E400090E0289FF001299FF00D389FF00D1124AC
:100E5000EE0DFF1DEE53FE4F10828DEB93E00E94CE
:100E60002518812F81506D2D0E94FD028823D9F015
:100E700083ED96E06CE971E00E941C1E812F90E0EA
:100E8000019725E130E0829FF001839FF00D929F52
:100E9000F00D1124EE0DFF1DED53FE4F10828DEB72
:100EA00093E00E942518812F8F5F6D2D0E94FD0217
:100EB0008823D9F083ED96E069EA71E00E941C1E58
:100EC000812F90E0019625E130E0829FF001839F21
:100ED000F00D929FF00D1124EE0DFF1DED53FE4F0E
:100EE00010828DEB93E00E942518DF91CF911F9126
:100EF0000F91FF90EF90DF90CF900895EF92FF92C7
:100F00000F9394EEE92E93E0F92EC701609135041A
:100F10004091360420913804009137040E94E00A81
:100F2000C70160E00E940E0A609135046F5F409136
:100F300036044F5FC7010E94160A609135046E5F48
:100F4000409136044E5FC7010E94160AC70161E056
:100F50000E940E0A0F91FF90EF900895CF93DF93B8
:100F6000CCE1D4E088818823A1F00E94BA182B81BB
:100F70003C814D815E81621B730B840B950B68581D
:100F800073418040904028F0188289816A810E94D4
:100F90006706279684E0C133D80721F7DF91CF9108
:100FA0000895EF92FF920F931F93CF93DF93E82E54
:100FB000F62E80911C04882319F4C0E0D0E00EC006
:100FC00080912304882319F4C1E0D0E007C0809108
:100FD0002A04882309F04BC0C2E0D0E00E94BA186E
:100FE0008E0143E0000F111F4A95E1F70C1B1D0B0A
:100FF000045E1B4FF8016383748385839683F694A4
:10100000F6946F2D70E0882777FD8095982F0E94C9
:10101000181F20E030E040E05FE30E94811E0E9444
:10102000E51E32E0660F771F881F991F3A95D1F7AA
:10103000F8016283E694E6946E2D70E0882777FDD0
:101040008095982F0E94181F20E030E040E05FE379
:101050000E94811E0E94E51E22E0660F771F881FF6
:10106000991F2A95D1F7F801618381E08083DF9190
:10107000CF911F910F91FF90EF90089582EA93E036
:1010800065E00E94BE09882341F090E080913B0416
:10109000882309F491E090933B0482EA93E066E0B0
:1010A0000E94BE09882341F088E993E060E671E080
:1010B0004EE650E00E941F1382EA93E060E041E0B8
:1010C0000E94C809882329F084E394E00E948A04DE
:1010D00026C082EA93E062E041E00E94C8098823CA
:1010E00029F084E394E00E945B0419C082EA93E053
:1010F00061E041E00E94C809882329F084E394E07C
:101100000E943D040CC082EA93E063E041E00E944B
:10111000C809882321F084E394E00E940E0482EA47
:1011200093E064E00E94BE09882371F08091380446
:101130008695209135046091370466959091360428
:10114000690F820F0E94D107089588E993E00E94F9
:1011500066128823A9F00E943E0880913B048823F0
:1011600019F00E94D70508950E9480050E94AE07DD
:101170000E943A050E947E070E94CC050E94A804A6
:101180000895882319F48CB5806202C08CB58F7DD8
:101190008CBD08959CB5937F982B9CBD08952CB56C
:1011A000382F33702C7F322B3CBD2DB590E09595B8
:1011B00087959595879581702E7F822B8DBD08959B
:1011C0008AE061E00E943D1A8AE061E00E94D11944
:1011D0008CB580618CBD8CB580648CBD8DE061E088
:1011E0000E94D1198BE061E00E94D1190895FC01A1
:1011F00081E08083089585E070E00E947119089570
:101200006F927F928F929F92AF92BF92CF92DF9216
:10121000EF92FF920F931F93CF93DF93EC0189819D
:101220009A818C0124E0000F111F2A95E1F7081B19
:10123000190B85E10E944F19BC01600F711F84E0FA
:10124000769567958A95E1F77A8369838881882303
:1012500081F12E813F816217730710F4B90106C036
:10126000888599858617970708F4BC0100D000D0BF
:1012700080E090E040E050E0E884F98400E010E095
:10128000AD80BB24CC24DD246C8077248824992471
:10129000EDB7FEB761827282838294820E942F1E14
:1012A0006B830F900F900F900F9085E070E00E947D
:1012B0007119DF91CF911F910F91FF90EF90DF9007
:1012C000CF90BF90AF909F908F907F906F90089538
:1012D000FC018CE39FE09383828384E0818381E03F
:1012E00084870895CF93DF93EC018C8590E08F7114
:1012F0009070892B69F584E10E944F19AA2797FD08
:10130000A095BA2FBC01CD010E94181F26EE3FE325
:101310004EEC50E40E941F200E94EA1E9B01AC018B
:101320007B836A836115710589F084E08983B90143
:10133000FE0120E0848195816817790710F42983E4
:101340000AC02F5F32962430A9F702C08FEF89833D
:101350008C858F5F8C87DF91CF910895FC0188E0A9
:10136000808389E0818387E0828386E0838384E0D1
:10137000848382E0858381E18683089520E0FC01F7
:10138000E60FF11D8781813009F421E0822F089555
:10139000E62FF0E0423040F420E0E80FF91F8781AB
:1013A00081508E3F88F40FC0E80FF91F87818F3F6F
:1013B00011F420E009C020E090E0642F70E00E946A
:1013C000F620019709F421E0822F08950F931F93CF
:1013D000CF93DF93EC0110E00FEF888162E00E9471
:1013E000D11988810E94701A2F81892B19F42F5FDF
:1013F0002F8307C0222349F02F3F11F41F8201C021
:101400000F83888160E00E94D1191F5F21961730F9
:1014100021F7DF91CF911F910F910895FC01678F04
:1014200060A30895FC01678F40A30895FC01643513
:10143000A8F547FD33C040338CF5878D942F9595E3
:1014400095959595772767FD70954770882399F056
:10145000E4E59E02F0011124E60FF71FEC5BFB4F61
:1014600081E090E002C0880F991F4A95E2F7208141
:10147000282B20830895E4E59E02F0011124E60F55
:10148000F71FEC5BFB4F81E090E002C0880F991FD3
:101490004A95E2F780952081282320830895AF9212
:1014A000BF92CF92DF92EF92FF920F931F93CF9351
:1014B000DF93EC01162FF42EE22EAA24402F55279D
:1014C00047FD50958F2D992787FD9095481B590B07
:1014D00057FF03C0509541955F4F2E2D332727FDB1
:1014E0003095812F992787FD9095281B390B37FF61
:1014F00003C0309521953F4F2417350744F4AA24A3
:10150000A3948F2DF12E182F802F0E2DE82EE1168B
:1015100034F48E2DE12E182F802F0F2DF82EDE2C77
:10152000D11A202F332727FD30958F2D992787FD3E
:101530009095281B390B37FF03C0309521953F4FFD
:10154000B22EF0161CF0CC24CA9402C0CC24C39452
:101550008D2DD7FC8F5F082F059511C0AA2021F093
:10156000CE016F2D412F03C0CE01612F4F2D0E9460
:10157000160A0B1907FF02C0FC0C0D0D1F5FE116C8
:101580006CF7DF91CF911F910F91FF90EF90DF905B
:10159000CF90BF90AF9008950F93042F322F262F36
:1015A0002150230F0E944F0A0F9108950F93362F59
:1015B000042F0150020F232F0E944F0A0F9108950C
:1015C0009F92AF92BF92CF92DF92EF92FF920F93D2
:1015D0001F93CF93DF936C01B62E942EA02EC0E004
:1015E000D0E0E62EFF24E7FCF094022F112707FD40
:1015F00010950E0D1F1D06C0C601492D2A2D0E94F3
:10160000D60A21966B2D6C0FCE018E0D9F1D801773
:10161000910794F3DF91CF911F910F91FF90EF907D
:10162000DF90CF90BF90AF909F900895CF92DF92C0
:10163000EF92FF920F931F937C01162FD42EC22E90
:101640000E94CC0A4D2D4150400FC701612F2C2D17
:101650000E94CC0AC701612F4D2D202F0E94D60A6F
:1016600011501C0DC701612F4D2D202F0E94D60A4D
:101670001F910F91FF90EF90DF90CF9008952F92E0
:101680003F925F926F927F928F929F92AF92BF92A2
:10169000CF92DF92EF92FF920F931F93DF93CF933E
:1016A00000D000D000D0CDB7DEB79E838D83C62E8C
:1016B000D42EEE24E394E21A8EEF289F502C1124AE
:1016C000842E8A94962E9A94A42EA394B62EB39424
:1016D000F22E662423E0722E10E0C8018470907010
:1016E0009A838983F801E270F070FC83EB8398E0C1
:1016F000292E312C202231220170107054C0E7FCB9
:1017000004C0FA94F2E05F0EE50C639489819A813B
:10171000892B71F04F2D4D0D8D819E816B2D0E9477
:10172000160A6F2D6C0D8D819E814A2D0E94160A1E
:10173000EB81FC81EF2B71F04D2D4F198D819E8136
:101740006B2D0E94160A6F2D6C0D8D819E81482D88
:101750000E94160A2114310471F06C2D6F198D81CD
:101760009E814A2D0E94160A4F2D4D0D8D819E811E
:10177000692D0E94160A0115110571F06C2D6F1963
:101780008D819E81482D0E94160A4D2D4F198D8105
:101790009E81692D0E94160AE70CF2E07F0E8A9462
:1017A0009A94A394B3946F140CF4A9CF26960FB611
:1017B000F894DEBF0FBECDBFCF91DF911F910F9187
:1017C000FF90EF90DF90CF90BF90AF909F908F9061
:1017D0007F906F905F903F902F9008954F925F920F
:1017E0006F927F928F929F92AF92BF92CF92DF9231
:1017F000EF92FF920F931F93CF93DF93EC01A62EEE
:10180000742E9E2DFF24F394F21A8EEF289F802CC5
:101810001124B42EBA9453E0C52ECE0CE22EDD2452
:1018200043E0942E10E031E0432E512C402251220F
:10183000692E63940270107034C0F7FC04C0EA94FF
:1018400082E0880EF80CD3944114510489F06D2D78
:101850006A0D472D4E192E2D220F260DCE010E9406
:10186000D60A6E2D6A0DCE014B2D2C2D0E94D60A64
:101870000115110589F06A2D6D19472D4E192E2D70
:10188000220F260DCE010E94D60A6A2D6E19CE01B6
:101890004B2D2C2D0E94D60AF90C82E0980EBA949A
:1018A000C80EDE1454F2DF91CF911F910F91FF907B
:1018B000EF90DF90CF90BF90AF909F908F907F90F0
:1018C0006F905F904F9008957F928F929F92AF920A
:1018D000BF92CF92DF92EF92FF920F931F936C0112
:1018E000962EA42EF22E7E2C760E1EEFE19E102D4B
:1018F0001124812E820E672D282D0E94CC0AB02E35
:10190000BA0CBA94C601672D4B2D282D0E94CC0A23
:10191000AE0C100FC601692D4A2D212F0E94D60A48
:10192000F90CFA94C6016F2D4A2D212F0E94D60A78
:10193000C601672D4A2D2E2D01E00E943F0BFE1897
:10194000C6016F2D4A2D2E2D02E00E943F0BBE18BE
:10195000C6016F2D4B2D2E2D04E00E943F0BC601BA
:10196000672D4B2D2E2D08E00E943F0B1F910F91EC
:10197000FF90EF90DF90CF90BF90AF909F908F90AF
:101980007F9008958F929F92AF92BF92CF92DF92F5
:10199000EF92FF920F931F936C01162FA42E922E9D
:1019A000F02EBE2C8E2C860E2EEFE29EE02C112403
:1019B0002E2D290D682D0E94E00AAB0CFA94FE0C26
:1019C0001150190D1B19C601612F4A2D2B2D01E055
:1019D000EF2C0E94EE0BC601682D4A2D2B2D02E044
:1019E0000E94EE0B1F910F91FF90EF90DF90CF9030
:1019F000BF90AF909F908F9008953F924F925F92CB
:101A00006F927F928F929F92AF92BF92CF92DF920E
:101A1000EF92FF920F931F93CF93DF934C01362EDB
:101A2000442EF901A490319654906F010894C11C82
:101A3000D11C8A2D992787FD9095079668E070E064
:101A40000E940A21E62EFF24E7FCF09400E0C0E0AB
:101A5000D0E060E8662E712C26C0E12FE595E59573
:101A6000E595FF27E7FDF095EC0FFD1FEC0DFD1D43
:101A7000E4912E2F30E0812F8770A30102C055958D
:101A800047958A95E2F724233523232B31F0612FE4
:101A9000630DC4014B2D0E94160A1F5F1A15ECF24C
:101AA0000F5FCE0DDF1D051524F410E0B02EB40C31
:101AB000F5CFDF91CF911F910F91FF90EF90DF90C5
:101AC000CF90BF90AF909F908F907F906F905F90DE
:101AD0004F903F900895DC01FB0184918F5F149635
:101AE0008C931497319684918F5F15968C931597EC
:101AF00031965E96FC93EE935D9708953F924F92D8
:101B00005F926F927F928F929F92AF92BF92CF928D
:101B1000DF92EF92FF920F931F93CF93DF93EC012D
:101B2000862EA42E422F102F3F8C23E526170CF46F
:101B3000ABC03FE23A150CF4A7C0C02EDD248C8167
:101B400090E001979C01C29EC001C39E900DD29E61
:101B5000900D1124262F332727FD3095820F931FD8
:101B6000181619060CF090C08D8190E09C01C29E61
:101B7000C001C39E900DD29E900D11242A2D3327B3
:101B800027FD3095820F931F181619060CF07CC0A4
:101B90009924442E55246DC09C0121503040421799
:101BA000530711F460E00EC0429EC001439E900DA9
:101BB000529E900D1124840F951FED8DFE8DE80F20
:101BC000F91F64914C9DC0014D9D900D5C9D900D41
:101BD0001124682C680EBB24792C780C3FC0E62EAB
:101BE000FF2460FF19C0113039F44B2D4A0DCE018E
:101BF000672D0E94160A2EC02C9DC0012D9D900DB0
:101C00003C9D900D11244A2D480FCE01662D212FA9
:101C1000012F0E94E00A1EC098A18F8D9817D1F065
:101C20009F8F113039F44B2D4A0DCE01672D0E9444
:101C3000160A0FC02C9DC0012D9D900D3C9D900D4E
:101C400011244A2D480FCE01662D212F012F0E940D
:101C5000E00A3F8EF594E7946E2DB3942B2D332735
:101C600027FD30958D8190E0281739070CF4B7CF08
:101C70009394492D552747FD50958C8190E0481746
:101C800059070CF489CF3F8EDF91CF911F910F91AF
:101C9000FF90EF90DF90CF90BF90AF909F908F908C
:101CA0007F906F905F904F903F9008950F93CF93E8
:101CB000DF93EC01262F6A3049F48D819885899F46
:101CC000802D11249A85980F9A8726C06D3029F1AE
:101CD00069854A8508850E947E0D9C816885969F4E
:101CE000402D11248985480F49878F818823A9F0C9
:101CF000552747FD5095699F9001112484E590E098
:101D0000821B930B8417950744F49D81699F902D46
:101D100011248A85890F8A87198681E090E0DF91F6
:101D2000CF910F9108951F93CF93DF93EC01162F5E
:101D3000F8948E8560E00E943D1A8F8518161CF479
:101D400060E00E943D1A1EBD0DB407FEFDCF8EB5AA
:101D50008F8518161CF461E00E943D1A7894DF917B
:101D6000CF911F910895FF920F931F93CF93DF930D
:101D7000EC01FF2400E010E06F2D6064CE010E94B2
:101D8000930ECE0160E80E94930E8E8561E00E9462
:101D90003D1A8F8518161CF460E00E943D1AF80168
:101DA000EC5BFB4F90E080818EBD0DB407FEFDCF54
:101DB0008EB59F5F31969435B1F78F8518161CF458
:101DC00061E00E943D1AF3940C5A1F4F86E0F8160A
:101DD00099F6CE0160E40E94930EDF91CF911F919E
:101DE0000F91FF900895CF93DF93DC0188EF91E08E
:101DF000E4E4F4E0EF019C01199221503040E1F756
:101E000019961C9219971A961C92DF91CF910895FA
:101E1000EF920F93CF93DF93EC014D876C872E8762
:101E2000E88A0F8781E088878F8F18A28F83CE0181
:101E30006AE871E00E946B0D0E94E00881E00E9458
:101E4000C10885E00E94CF088CE00E94CA088D85F9
:101E500061E00E94D1198C8561E00E94D1198E85C4
:101E600061E00E94D119888918161CF461E00E9473
:101E7000D1198F8518161CF461E00E94D119888948
:101E800018166CF460E00E943D1A6AE070E080E091
:101E900090E00E94EE18888961E00E943D1AEC856E
:101EA0002E2F332727FD3095F901E356FB4FE491A0
:101EB000F0E0EE0FFF1FE757FB4F859194919C8B4D
:101EC0008B8B2F543B4FF90184918A8FED852E2FF8
:101ED000332727FD3095F901E356FB4FE491F0E0FD
:101EE000EE0FFF1FE757FB4F859194919A8B898BDB
:101EF0002F543B4FF9018491898FEF852E2F332783
:101F000027FD3095F901E356FB4FE491F0E0EE0F29
:101F1000FF1FE757FB4F859194919E8B8D8B2F541C
:101F20003B4FF90184918B8FEE852E2F332727FDB0
:101F30003095F901E356FB4FE491F0E0EE0FFF1FFF
:101F4000E757FB4F85919491988F8F8B2F543B4F80
:101F5000F90184918C8FCE0161E20E94930ECE0133
:101F600064E10E94930E8B8587FF02C08FE78B8709
:101F70006B856068CE010E94930ECE0160E20E94E4
:101F8000930ECE016CE00E94930ECE010E94B30E20
:101F9000DF91CF910F91EF900895FC01262FE45827
:101FA000FF4F88EE93E070E00E940A216083EC57B7
:101FB000F040822F64E10E94EA2087A30895FC018B
:101FC000E458FF4F60818AE0689FB00111243A977E
:101FD000808191810E94F620862F0895DF93CF9310
:101FE00000D0CDB7DEB780917D0390917E0300973E
:101FF00011F485EF96E09E012F5F3F4F281B390BB0
:10200000C9010F900F90CF91DF910895CF93DF9387
:10201000DC01E0E8FFE685919491ED01C95ADF4FBC
:10202000AD0143595F4F8150904C09F04EC0E6E935
:10203000FFE6E491E883E7E9FFE6E4911496EC9388
:102040001497E8E9FFE6E4911596EC931597E9E912
:10205000FFE68591949117969C938E931697EBE9E2
:10206000FFE68591949119969C938E931897EDE9CC
:10207000FFE6E4919996EC939997EEE9FFE6E491F7
:102080009896EC939897EFE9FFE6E491EA01E883EC
:10209000E0EAFFE6859194915D969C938E935C9720
:1020A000E2EAFFE6859194915F969C938E935E970A
:1020B000E4EAFFE68591949191969C938E93909794
:1020C000E6EAFFE68591949132C08CE3888314960A
:1020D0001C9214972FEF15962C93159780E293E09E
:1020E00017969C938E93169784ED93E019969C9384
:1020F0008E93189781E099968C93999798968C93E4
:102100009897FA0120838CEA9DE05D969C938E93CC
:102110005C978EED9DE05F969C938E935E9784E72F
:102120009EE091969C938E9390978CE39FE093967C
:102130009C938E939297DF91CF9108958F929F9267
:10214000AF92BF92CF92DF92EF92FF920F931F93C5
:10215000DF93CF93CDB7DEB76E157F050CF452C079
:10216000C5018E0D9F1D681779070CF04BC04C15EB
:102170005D050CF447C0C4018C0D9D1D481759071F
:102180008CF140C0C5018E0D9F1D281739070CF03A
:1021900043C04C155D050CF43FC0C4018C0D9D1D62
:1021A00048175907FCF038C0C5018E0D9F1D6817F0
:1021B0007907CCF54C155D05B4F1C4018C0D9D1D5E
:1021C000481759077CF02FC0AE0CBF1C2A153B05E1
:1021D0005CF44C155D0544F080E08C0C9D1C4815AA
:1021E00059051CF481E001C080E0CF91DF911F917F
:1021F0000F91FF90EF90DF90CF90BF90AF909F90A6
:102200008F90089561507040260F371F6F5F7F4F8A
:102210002E153F050CF0B6CF41505040400F511FD6
:102220006E157F050CF62E153F0574F6DDCFEF9287
:10223000FF920F931F93CF93DF937C018C01045B7C
:102240001F4FC8010E94F30EC80161E373E00E94B2
:10225000EA1CC8010E94B30E83E00E94CF0888EBFD
:1022600091E0EEEFFFE3099582E590E0E80EF91EBC
:10227000F7011082C8016CE073E00E94351DC801AF
:102280000E94B30EE701C854D040CE010E94E60977
:10229000CE0164E00E94BE09882339F462E370E055
:1022A00080E090E00E94EE18F0CFDF91CF911F9177
:1022B0000F91FF90EF9008950F931F93CF93DF93AB
:1022C000EC018C01045B1F4FC80161E040E00E94FB
:1022D000120AFE01EB5AFF4FC05BDF4F85E5988184
:1022E000891B808326961882C655D040698D61303F
:1022F00061F1613028F0888D653008F03FC039C049
:10230000CE0185960E946015CE0160E00E94FB0818
:10231000C8010E94F30EC80169E573E00E94EA1C3F
:10232000C8010E94B30E83B7817F846083BF83B7E7
:10233000816083BF83B7816083BF889583B78E7FB9
:1023400083BF83B78E7F83BF1FC0C259DF4F888191
:102350009981AA81BB818F709070A070B07008972E
:10236000A105B10518F4C80167E00CC0C80168E711
:1023700009C0882349F06B5FC80104C0882321F09D
:10238000C8016FE20E940D1DDF91CF911F910F9147
:102390000895AF92BF92CF92DF92EF92FF920F9388
:1023A0001F93CF93DF93EC01CD57DF4F8881C35844
:1023B000D040882309F44AC08C3010F010E002C0ED
:1023C0001CE0181BCC5ADF4F81E08883C455D040F5
:1023D0006CE4C62ED12CCC0EDD1EC60160E00E943E
:1023E0000E0A51E5A52EB12CAC0EBD1EF5010081E3
:1023F0004DE2F42E4F2D401B410F0D5FC60160E0F2
:1024000024E533E0E32E0E94C20CC60161E00E9485
:102410000E0AF5010081F01AF10E0D5FC60160E0B1
:102420004F2D24E50E94640CCB5ADF4F84E0899342
:10243000F5018081181B115D1883AB966991799124
:10244000C6010E94EA1C888181508883DF91CF9168
:102450001F910F91FF90EF90DF90CF90BF90AF90C2
:1024600008958F929F92AF92BF92CF92DF92EF9298
:10247000FF920F931F934C01FC01A28CB38CCC24D0
:10248000DD240E94C8187B018C01F40181809280B8
:102490000E94C818860E971EE094F094009510953F
:1024A000C801B701A60195010E94CB20860E971E98
:1024B000C4010E94781E1F910F91FF90EF90DF9052
:1024C000CF90BF90AF909F908F900895AF92BF92A2
:1024D000CF92DF92EF92FF920F931F93CF93DF93F0
:1024E000EC01EDE7AE2EB12CA80EB91EF501E0808F
:1024F000F180028113810E94BA18E61AF70A080BCC
:10250000190B7CE7C72ED12CCC0EDD1EF601808185
:1025100090E0A0E0B0E08E159F05A007B10708F09D
:1025200081C08E0108581F4FF80180819181A281DE
:10253000B3810097A105B10509F474C00E94BA18CF
:10254000F6012081620F711D811D911DF5016083CF
:10255000718382839383FE01E259FF4F80819181D1
:10256000A281B3810196A11DB11D80839183A283B5
:10257000B383F80110821182128213820E94C8185C
:10258000CC58DF4F688379838A839B83C457D040BC
:10259000CE010E940009CE010A960E94E609CE01F2
:1025A00048960E9472098E010B5D1F4FC8010E9460
:1025B000CD15C8010E94A516C8010E94BC1781E074
:1025C00026C0CE010E94C911CE010E945C118E016D
:1025D000045B1F4FC8010E94B30ECE5ADF4F8881A3
:1025E000C255D040882319F4C8010E94F30E0E94FE
:1025F000C818C858DF4F688379838A839B832497E0
:1026000028813981621B730B7A936A9380E0DF9192
:10261000CF911F910F91FF90EF90DF90CF90BF90DF
:10262000AF900895C858DF4F88819981AA81BB81F6
:10263000C857D0400097A105B10541F7C2CF2F92EE
:102640003F924F925F926F927F928F929F92AF9242
:10265000BF92CF92DF92EF92FF920F931F93DF937F
:10266000CF93CDB7DEB72B970FB6F894DEBF0FBE72
:10267000CDBF9B878A877A8369835C834B838C0178
:1026800003591F4FF8018081882309F41DC18A85F1
:102690009B858D5A9F4FFC0110821292E255F040AB
:1026A000FB87EA87108E9CE4E92EF12CEE0EFF1ECC
:1026B000C70161E00E940E0A8AE0282E312C8A852B
:1026C0009B85280E391EB5E26B2E712C680E791E83
:1026D000E981FA81F491FD83A5E58A2E912C880E7B
:1026E000991EF6E5CF2ED12CC80ED91EE0E54E2E50
:1026F000512C480E591E8F5A9F4F9F838E837EE622
:10270000A72EB12C8A859B85A80EB91E198708872C
:102710008A859B850E9466128823D1F39D81992327
:1027200011F410E003C0EE81FF811081C70160E069
:1027300040E025EA33E00E94FD0C8B819C81892BCF
:1027400041F0145FC70160E0412F2B813C810E9462
:10275000FD0CF40110828CE0F6018083C7016981D1
:102760007A810E94EA1CF201208130E0C901880FC1
:10277000991F820F931F909581959F4F8D5AF40159
:102780008083EE81FF81208130E0C901880F991F8D
:10279000820F931F909581959F4F835DF6018083F3
:1027A000F501808184FF04C0C70165E274E003C0C5
:1027B000C70161E274E00E94351DF201208130E022
:1027C000C901880F991F820F931F909581959F4F84
:1027D0008D5AF4018083F60180818F5F8083EA85C2
:1027E000FB8580A5882321F0C7016DE174E003C05B
:1027F000C70169E174E00E94351DF201808190E01B
:102800009C01220F331F280F391F309521953F4F10
:102810002D5AF4012083F60180818F5F8083C701E8
:1028200065E174E00E94351DC10165E00E94BE09AA
:10283000882351F0EA85FB8560A56F5FC3010E9484
:102840002B18C3010E942518C10164E00E94BE0933
:10285000882399F4E885F9856081262F30E040E0EF
:1028600050E0F50180819181A281B38182179307A5
:10287000A407B50708F16F3FF9F08A859B85835956
:102880009F4F9B878A878FEFEA85FB858083ED5674
:10289000F040FB87EA87C30160E00E945115C30145
:1028A0000E94191881E0EA85FB85808F0DC08A851A
:1028B0009B850E9417112CCFC10166E00E94BE09C2
:1028C000882309F425CFF3CF2B960FB6F894DEBFFB
:1028D0000FBECDBFCF91DF911F910F91FF90EF9071
:1028E000DF90CF90BF90AF909F908F907F906F9030
:1028F0005F904F903F902F900895AF92BF92CF92EC
:10290000DF92EF920F93CF93DF936C018CE790E00F
:10291000C80ED91E82E3F601808381E090E0A0E03A
:10292000B0E0B293A293929382936F0185EF9FEFF1
:10293000C80ED91E8FEFF601808383E99FEFC80E82
:10294000D91EC6010E940610C6010E94F708C601E2
:102950006FEF0E94FB084AE0A42EB12CAC0CBD1C0A
:10296000C5010E94AE09C5010E94E609C60148964C
:102970000E946809C601845B9F4F6DE04BE020E137
:102980000FE03EE0E32E0E94080FE601A596CE017F
:102990000E943818C50165E00E94BE09882329F00D
:1029A000CE0160E00E942B1806C0CE016BE274E0FD
:1029B00040E00E946415DF91CF910F91EF90DF907E
:1029C000CF90BF90AF9008950F93CF93DF93EC011A
:1029D000623009F440C0633030F4662359F061304E
:1029E00009F04AC00BC0633009F43BC0643009F001
:1029F00043C03DC0C00FD11D4C8B3EC0602F70E066
:102A0000DB01AA0FBB1FA80FB91F842F90E0880F0E
:102A1000991F1D962D913C911E97280F391FF90182
:102A2000859194915E969C938E935D97FC01459160
:102A30005491A42FFE01E60FF71F478F252F332750
:102A4000842F90E02817390708F4A52F6C0F7D1FFD
:102A5000FB01A0A311C0FC01E00FF11D478B208FEB
:102A60000BC0FC01E00FF11D418F228F05C0FC015E
:102A7000E00FF11D438F248FDF91CF910F910895C7
:102A8000FC01662369F4158A138A12A211A2168A20
:102A90001092400610923F0610923D061092B4002C
:102AA0000895FF920F931F938C01F62E0E944015FC
:102AB0000F0D111DF80111821F910F91FF900895C4
:102AC00060E00E9451150895DF92EF92FF920F93FC
:102AD0001F938C017B01D42E642F0E9451154D2D24
:102AE00050E0FA01EE0FFF1FE00FF11FF486E386BE
:102AF000FA013896EE0FFF1FE00FF11F11821082CE
:102B0000040F151F81E0F801818389E0848B178A07
:102B1000118E138E1F910F91FF90EF90DF9008950B
:102B2000CF93DF939C01462FA62FB0E0EC01CA0F94
:102B3000DB1F8881882371F18981882359F5FD0184
:102B4000EE0FFF1FE20FF31F8F8190E0880F991F98
:102B50000580F681E02DE80FF91F859194915FEFD4
:102B60008F3F950711F4188215C09A871496AA0F03
:102B7000BB1FA20FB31F90E0880F991FED91FC912E
:102B8000E80FF91F65917491C9010E9464158F8146
:102B90008F5F8F83DF91CF91089560E00E94901541
:102BA00008955F926F927F928F929F92AF92BF92A1
:102BB000CF92DF92EF92FF920F931F93CF93DF9309
:102BC0007C01562EC62EDD24BC016C0D7D1DDB0163
:102BD00011968C911197882309F4A7C053968C9174
:102BE000882309F0A2C08601000F111F0E0D1F1DC2
:102BF000E6012896CC0FDD1FCE0DDF1DE881F9819F
:102C0000EE0FFF1FD8011B964D915C911C97E40FAE
:102C1000F51F259134912115310509F049C0FB01BB
:102C20008785813031F419821882FA012591349117
:102C30003FC0DB0111961C9211978C91882391F073
:102C4000C701652D0E94901588819981880F991F71
:102C5000D8011B96ED91FC911C97E80FF91F259167
:102C6000349126C0C701652D0E9440155EC086E0E4
:102C7000369527958A95E1F76F70422F4F7105E0E1
:102C8000369527950A95E1F72051C701052D0E9439
:102C9000E41488819981019699838883880F991F0C
:102CA000D501ED91FC91E80FF91F2591349114C0E5
:102CB0004601880C991CA8E06A2E712C6C0C7D1CB6
:102CC000E301CC0FDD1FCE0DDF1D5701A80CB91C91
:102CD000EBE0F0E0AE0EBF1EB901769567957695F4
:102CE000679520FDC4CFF701EC0DFD1D862F8F7376
:102CF000828B338B13A28E0C9F1CD40192961C9254
:102D00001E92919781E0858B2DE336E0C20ED31E93
:102D1000D6018C93168AF301EE0FFF1FEE0DFF1DF7
:102D200080819181019691838083DF91CF911F9162
:102D30000F91FF90EF90DF90CF90BF90AF909F905A
:102D40008F907F906F905F90089560E00E94D11502
:102D50000895DF92EF92FF920F931F93CF93DF932B
:102D60007C01062F10E0DC01A00FB11F55968C915D
:102D70005597882309F4F8C053968C91539788236C
:102D800021F4C7010E944015EFC0815053968C93E7
:102D9000539793968C919397882309F04BC0E80141
:102DA000CC0FDD1FCE0DDF1D89A19AA10196880FE2
:102DB000991FED8DFE8DE80FF91F85919491282FB5
:102DC000277094962C939497AC01F3E05695479511
:102DD000FA95E1F79A0136952795892F99278695D7
:102DE000869595968C9395972F73F7018281289FEE
:102DF000202D112493962C939397F801EF5BF94FB4
:102E00004170408389A19AA101969AA389A35F96F4
:102E10002C915F9730E08217930760F090968C9129
:102E2000882329F0281B31093AA329A303C0C7012D
:102E30000E944015F701E00FF11F83A1815083A389
:102E400036893F5F368B428925A1240F8285280F62
:102E5000618D662311F4D22E0CC0832F992787FD34
:102E6000909570E00E940A21828D869FD02C1124BB
:102E7000D20EF701E00FF11F24896789662371F0F4
:102E8000772767FD7095832F992787FD90950E947E
:102E90000A21808D869F802D1124280FF701E00FD5
:102EA000F11F638D662389F0832F992787FD909505
:102EB00070E00E940A21CB0162E070E00E940A21CA
:102EC000948D899F802D1124280F4F3331F0822F4C
:102ED0002A300CF089E0482F87FD40E0F8948D2DD2
:102EE000992787FD9095849664E270E00E940A21FC
:102EF000E82FFF27E7FDF095E15BFB4FE491D80158
:102F0000A25CB94FEC93F701E00FF11F26A130E06E
:102F100084A1992787FD9095B901689F9001699FC9
:102F2000300D789F300D1124F701838190E0B901B5
:102F3000689F9001699F300D789F300D1124842F78
:102F4000992787FD9095FC012E9FC0012F9F900D22
:102F50003E9F900D1124F801E15CF94F8083005CE5
:102F6000194FF80180837894DF91CF911F910F91D1
:102F7000FF90EF90DF90089560E00E94A9160895F9
:102F800060913F06662381F180913C068F5F8093BC
:102F90003C0690913E06891738F130E080913D065D
:102FA000882309F431E030933D0610923C0680916D
:102FB00041068823A9F080917C0323E4829FC0010D
:102FC0001124895B80937C0390E070E00E94F620DE
:102FD0008093400605C0809140068093B400089518
:102FE0003323C9F780E0F9CF08951F920F920FB6EF
:102FF0000F9211242F933F934F935F936F937F937F
:103000008F939F93AF93BF93EF93FF930E94C0174B
:10301000FF91EF91BF91AF919F918F917F916F91B0
:103020005F914F913F912F910F900FBE0F901F9086
:10303000189567E474E040E00E94641508956FE31A
:1030400074E040E00E946415089569E374E040E094
:103050000E9464150895FC01862F648170E06F5F03
:103060007F4F992787FD90950E940A2183830895B9
:103070000F93FC0181E0828384E086A383E794E0E0
:1030800096878587CF0161E040E020E000E00E9464
:10309000E41483E061E070E00E947119E1EBF0E07C
:1030A0008081887F81608083F89410928000E1E8BD
:1030B000F0E01082109285001092840088E191E087
:1030C00090938900809388008081886080838081CC
:1030D00081608083EFE6F0E0808182608083789475
:1030E0000F9108951F920F920FB60F9211242F93F4
:1030F0003F938F939F93AF93BF9380914606909198
:103100004706A0914806B091490630914A060196BB
:10311000A11DB11D232F2D5F2D3720F02D570196B6
:10312000A11DB11D20934A06809346069093470641
:10313000A0934806B09349068091420690914306B9
:10314000A0914406B09145060196A11DB11D809342
:10315000420690934306A0934406B0934506BF9160
:10316000AF919F918F913F912F910F900FBE0F9034
:103170001F9018958FB7F894209146063091470616
:1031800040914806509149068FBFB901CA01089580
:103190009FB7F8942091420630914306409144062F
:1031A0005091450686B5A89B06C08F3F21F02F5F42
:1031B0003F4F4F4F5F4F9FBF542F432F322F222738
:1031C000280F311D411D511D82E0220F331F441F66
:1031D000551F8A95D1F7B901CA010895EF92FF9260
:1031E0000F931F93CF93DF937B018C010E94C8182C
:1031F000EB010EC00E94C8186C1B7D0B685E73400B
:10320000C8F30894E108F10801091109C851DC4F1D
:10321000E114F1040105110569F7DF91CF911F91C8
:103220000F91FF90EF900895789484B5826084BDEB
:1032300084B5816084BD85B5826085BD85B58160BA
:1032400085BDEEE6F0E0808181608083E1E8F0E01A
:103250001082808182608083808181608083E0E849
:10326000F0E0808181608083E1EBF0E08081846028
:103270008083E0EBF0E0808181608083EAE7F0E02A
:10328000808184608083808182608083808181608E
:1032900080838081806880831092C1000895982F78
:1032A0008E3008F09E50977080917F038295880F32
:1032B000880F807C892B80937C0080917A008064C9
:1032C00080937A0080917A0086FDFCCF209178006F
:1032D00040917900942F80E030E0282B392BC901F0
:1032E00008951F93CF93DF93182FEB0161E00E94A5
:1032F000D119209709F44AC0CF3FD10509F449C03C
:10330000E12FF0E0EB53FB4F84918330C1F0843028
:1033100028F4813051F08230B1F50CC0863019F1BB
:10332000873049F1843079F514C084B5806884BD54
:10333000C7BD33C084B5806284BDC8BD2EC0809136
:103340008000806880938000D0938900C0938800BB
:1033500024C080918000806280938000D0938B0095
:10336000C0938A001AC08091B00080688093B0003A
:10337000C093B30012C08091B00080628093B0000F
:10338000C093B4000AC0C038D1051CF4812F60E09E
:1033900002C0812F61E00E943D1ADF91CF911F9101
:1033A0000895CF93DF93482F50E0CA018F549B4F6D
:1033B000FC01349143565B4FFA018491882369F1F3
:1033C00090E0880F991FFC01E158FB4FA591B49143
:1033D000FC01E757FB4FC591D491662351F42FB7F9
:1033E000F8948C91932F909589238C9388818923CD
:1033F0000BC0623061F42FB7F8948C91932F9095A5
:1034000089238C938881832B88832FBF06C09FB725
:10341000F8948C91832B8C939FBFDF91CF9108956B
:10342000833071F0843028F48130A1F0823021F5AE
:1034300014C08630B1F08730D1F08430E9F404C094
:10344000809180008F7703C0809180008F7D809372
:103450008000089584B58F7702C084B58F7D84BDC8
:1034600008958091B0008F778093B0000895809187
:10347000B0008F7D8093B0000895FF920F931F934B
:10348000F62E482F50E0CA018B539B4FFC0124912C
:10349000CA018F549B4FFC01149143565B4FFA01B4
:1034A00004910023C9F0222319F0822F0E94101AE0
:1034B000E02FF0E0EE0FFF1FE757FB4FA591B4910F
:1034C0009FB7F894FF2021F48C911095812302C0BE
:1034D0008C91812B8C939FBF1F910F91FF9008952A
:1034E0000F931F93482F50E0CA018B539B4FFC0151
:1034F0002491CA018F549B4FFC01049143565B4FAA
:10350000FA011491112319F420E030E015C02223B0
:1035100019F0822F0E94101A812F90E0880F991FB6
:103520008D569B4FFC01A591B4918C9120E030E029
:10353000802311F021E030E0C9011F910F9108951F
:1035400008951F920F920FB60F9211242F933F935D
:103550004F938F939F93EF93FF938091C00082FDD1
:103560001DC04091C60020918B0630918C062F5FC4
:103570003F4F2F73307080918D0690918E062817E3
:10358000390771F0E0918B06F0918C06E55BF94FFD
:10359000408330938C0620938B0602C08091C60036
:1035A000FF91EF919F918F914F913F912F910F90AC
:1035B0000FBE0F901F901895E091DF06F091E00686
:1035C000E05CFF4F8191919120813181821B930BAF
:1035D0008F739070892B11F00E94A01A08951F928A
:1035E0000F920FB60F9211242F933F938F939F93B7
:1035F000EF93FF932091CF063091D0068091D106B2
:103600009091D2062817390731F48091C1008F7D3F
:103610008093C10014C0E091D106F091D206E15729
:10362000F94F20818091D1069091D20601968F7337
:1036300090709093D2068093D1062093C600FF919C
:10364000EF919F918F913F912F910F900FBE0F900F
:103650001F901895AF92BF92DF92EF92FF920F9357
:103660001F93CF93DF93EC017A018B01DD2440306F
:1036700081EE580780E0680780E0780711F0DD24CC
:10368000D39491E0A92EB12CEC89FD89DD2069F05D
:10369000C50108A002C0880F991F0A94E2F7808331
:1036A00060E079E08DE390E005C0108260E874E8A6
:1036B0008EE190E0A80197010E941D212150304029
:1036C00040405040569547953795279580E12030EA
:1036D000380720F0DD2011F0DD24D6CFE889F98904
:1036E0003083EA89FB89208319A2EE89FF89408112
:1036F00021E030E0C9010C8C02C0880F991F0A94A8
:10370000E2F7482B4083EE89FF894081C9010D8C87
:1037100002C0880F991F0A94E2F7482B4083EE8974
:10372000FF894081C9010E8C02C0880F991F0A943D
:10373000E2F7482B4083EE89FF8980810F8C02C01D
:10374000220F331F0A94E2F7209528232083DF916C
:10375000CF911F910F91FF90EF90DF90BF90AF90AE
:103760000895DC011C96ED91FC911D97E05CFF4FE4
:103770002191319180819181281B390B2F733070F9
:10378000C9010895DC011C96ED91FC911D97E05C48
:10379000FF4F20813181E054F040DF01AE5BBF4F2D
:1037A0008D919C9111972817390719F42FEF3FEF4E
:1037B00007C08D919C91E80FF91F8081282F30E080
:1037C000C9010895DC011C96ED91FC911D97E05C08
:1037D000FF4F20813181E054F040DF01AE5BBF4FED
:1037E0008D919C9111972817390719F42FEF3FEF0E
:1037F00010C08D919C911197E80FF91F20818D9138
:103800009C91119701968F73907011969C938E9353
:1038100030E0C9010895DC0191968C91919788233D
:1038200039F05496ED91FC915597808186FFF9CF40
:1038300091961C920895CF93DF93EC01EE85FF855E
:10384000E05CFF4F20813181E054F0402F5F3F4F1B
:103850002F733070DF01AE5BBF4F8D919C9111973C
:1038600028173907D1F3E05CFF4F80819181E05444
:10387000F040E80FF91F6083EE85FF85E05CFF4FA5
:1038800031832083EE89FF89208181E090E00F8CD5
:1038900002C0880F991F0A94E2F7282B208381E049
:1038A00089A3EC89FD8980818064808381E090E038
:1038B000DF91CF9108951092D6061092D50688EE2A
:1038C00093E0A0E0B0E08093D7069093D806A09351
:1038D000D906B093DA068CE893E09093D4068093EF
:1038E000D3068BE496E09093E0068093DF068FE8A2
:1038F00096E09093E2068093E10685EC90E0909349
:10390000E4068093E30684EC90E09093E6068093CF
:10391000E50680EC90E09093E8068093E70681EC62
:1039200090E09093EA068093E90682EC90E0909311
:10393000EC068093EB0686EC90E09093EE06809385
:10394000ED0684E08093EF0683E08093F00687E045
:103950008093F10685E08093F20681E08093F30680
:103960000895CF93DF930E9414190E942706CCED8F
:10397000DAE10E94A5082097E1F30E94DC1AF9CF52
:10398000CF92DF92EF92FF920F931F93CF93DF932B
:103990007C016B018A01C0E0D0E00FC0D6016D91BF
:1039A0006D01D701ED91FC910190F081E02DC701EF
:1039B0000995C80FD91F015010400115110571F765
:1039C000CE01DF91CF911F910F91FF90EF90DF908B
:1039D000CF900895EF92FF920F931F93CF93DF93B1
:1039E0007C018B01C0E0D0E0F8010F5F1F4F6491B4
:1039F000662359F0D701ED91FC910190F081E02D03
:103A0000C7010995C80FD91FEFCFCE01DF91CF9124
:103A10001F910F91FF90EF900895DC01ED91FC91C3
:103A20000190F081E02D09950895EF92FF920F9398
:103A30001F938C01DC01ED91FC910190F081E02D50
:103A40006DE009957C01D801ED91FC910190F08128
:103A5000E02DC8016AE009959C012E0D3F1DC901AA
:103A60001F910F91FF90EF900895EF92FF920F93A7
:103A70001F937C010E94EA1C8C01C7010E94151D46
:103A80009C01200F311FC9011F910F91FF90EF90F2
:103A90000895CF93DF93EC016115710519F420E0CF
:103AA00030E00FC0DB010D900020E9F71197A61B55
:103AB000B70BE881F9810280F381E02DAD01099512
:103AC0009C01C901DF91CF9108954F925F927F923F
:103AD0008F929F92AF92BF92CF92DF92EF92FF921E
:103AE0000F931F93DF93CF93CDB7DEB7A1970FB698
:103AF000F894DEBF0FBECDBF2C01742ECB01223057
:103B000008F42AE019A231E2C32ED12CCC0EDD1E1E
:103B1000822E9924AA24BB24672D752FA501940118
:103B20000E941D2179018A01C801B701A5019401F4
:103B30000E94CB20472D461B0894C108D1084A306B
:103B400014F4405D01C0495CF6014083E114F104C6
:103B50000105110521F07E2C5F2DC801DDCFC201CA
:103B6000B6010E94491DA1960FB6F894DEBF0FBEA4
:103B7000CDBFCF91DF911F910F91FF90EF90DF901C
:103B8000CF90BF90AF909F908F907F905F904F901D
:103B90000895DC012115310541F4ED91FC9101906E
:103BA000F081E02D642F099508950E94651D089508
:103BB000EF92FF920F931F939A017B0100E010E0B8
:103BC000B801A7010E94C91D1F910F91FF90EF90AE
:103BD0000895EF92FF920F931F939A01E62EFF2410
:103BE00000E010E0B801A7010E94C91D1F910F91CC
:103BF000FF90EF900895CF92DF92EF92FF920F9394
:103C00001F936C01E62E9A01FF2400E010E0B8013A
:103C1000A7010E94C91D8C01C6010E94151D080F35
:103C2000191FC8011F910F91FF90EF90DF90CF9067
:103C300008950E94491D0895EF92FF920F931F93DC
:103C40007C010E94491D8C01C7010E94151D080FAF
:103C5000191FC8011F910F91FF90EF9008952F92A7
:103C60003F924F925F926F927F928F929F92AF920C
:103C7000BF92CF92DF92EF92FF920F931F93DF9349
:103C8000CF93CDB7DEB73B014C0119012A016D89F5
:103C90007E898F89988D6A197B098C099D09621A22
:103CA000730A840A950AA40193010E94CB20E218AA
:103CB000F30804091509A80197010E943F212A0D64
:103CC0003B1D4C1D5D1DB901CA01CF91DF911F91B4
:103CD0000F91FF90EF90DF90CF90BF90AF909F90AB
:103CE0008F907F906F905F904F903F902F900895AE
:103CF000009729F0BC0180E090E00E94B82108956F
:103D00005058BB27AA270ED045C136D130F03BD141
:103D100020F031F49F3F11F41EF42BC10EF4E09516
:103D2000E7FBF8C0E92F47D180F3BA1762077307A2
:103D30008407950718F071F49EF576C10EF4E095AE
:103D40000B2EBA2FA02D0B01B90190010C01CA0155
:103D5000A0011124FF27591B99F0593F50F4503E00
:103D600068F11A16F040A22F232F342F4427585FF2
:103D7000F3CF469537952795A795F0405395C9F70A
:103D80007EF41F16BA0B620B730B840BBAF09150C2
:103D9000A1F0FF0FBB1F661F771F881FC2F70EC061
:103DA000BA0F621F731F841F48F487957795679534
:103DB000B795F7959E3F08F0B3CF9395880F08F01D
:103DC0009927EE0F97958795089504D06894B111BF
:103DD0002CC10895F8D088F09F5790F0B92F9927FB
:103DE000B751A0F0D1F0660F771F881F991F1AF006
:103DF000BA95C9F712C0B13081F016D1B1E008957B
:103E000013C1672F782F8827B85F39F0B93FCCF3FB
:103E1000869577956795B395D9F73EF490958095FB
:103E2000709561957F4F8F4F9F4F0895E89409C01B
:103E300097FB3EF490958095709561957F4F8F4FDD
:103E40009F4F9923A9F0F92F96E9BB279395F695F3
:103E5000879577956795B795F111F8CFFAF4BB0F71
:103E600011F460FF1BC06F5F7F4F8F4F9F4F16C0D5
:103E7000882311F096E911C0772321F09EE8872F5F
:103E8000762F05C0662371F096E8862F70E060E01B
:103E90002AF09A95660F771F881FDAF7880F969594
:103EA000879597F90895A9D080F09F3740F4911134
:103EB0000EF0BBC060E070E080E89FEB089526F450
:103EC0001B16611D711D811D2BC045C0990F000877
:103ED000550FAA0BE0E8FEEF16161706E807F907DC
:103EE000C0F012161306E407F50798F0621B730B77
:103EF000840B950B39F40A2661F0232B242B252BF8
:103F000021F408950A2609F4A140A6958FEF811D9A
:103F1000811D089597F99F6780E870E060E008953B
:103F2000882371F4772321F09850872B762F07C0D0
:103F3000662311F499270DC09051862B70E060E044
:103F40002AF09A95660F771F881FDAF7880F9695E3
:103F5000879597F908959F3F31F0915020F4879508
:103F600077956795B795880F911D9695879597F9E1
:103F700008959FEF80EC089500240A941616170602
:103F800018060906089500240A941216130614064A
:103F900005060895092E0394000C11F4882352F0AD
:103FA000BB0F40F4BF2B11F460FF04C06F5F7F4F65
:103FB0008F4F9F4F089557FD9058440F551F59F04C
:103FC0005F3F71F04795880F97FB991F61F09F3F06
:103FD00079F087950895121613061406551FF2CF2F
:103FE0004695F1DF08C0161617061806991FF1CF7F
:103FF00086957105610508940895E5DFA0F0BEE798
:10400000B91788F4BB279F3860F41616B11D672FC7
:10401000782F8827985FF7CF869577956795B11D9C
:1040200093959639C8F30895E894BB2766277727B8
:10403000CB0197F908954ADF08F48FEF08950BD06C
:10404000A9CF9ADF28F09FDF18F0952309F062CFFF
:1040500090CF1124EACFAFDFA0F3959FD1F3950F56
:1040600050E0551F629FF001729FBB27F00DB11DFC
:10407000639FAA27F00DB11DAA1F649F6627B00D8C
:10408000A11D661F829F2227B00DA11D621F739F75
:10409000B00DA11D621F839FA00D611D221F749F83
:1040A0003327A00D611D231F849F600D211D822FCA
:1040B000762F6A2F11249F5750408AF0E1F0882311
:1040C0004AF0EE0FFF1FBB1F661F771F881F91501E
:1040D0005040A9F79E3F510570F01CCFA6CF5F3F1F
:1040E000ECF3983EDCF3869577956795B795F79551
:1040F000E7959F5FC1F7FE2B880F911D96958795D9
:1041000097F9089511F40EF434CF25CF5CDFD0F386
:104110009923D9F3CEF39F57550B87FF35D0002451
:10412000A0E640EA900180585695979528F4805C67
:10413000660F771F881F20F026173707480730F4CF
:10414000621B730B840B202931294A2BA6951794E7
:104150000794202531254A2758F7660F771F881FB7
:1041600020F026173707480730F4620B730B840BD7
:10417000200D311D411DA09581F7B901842F915863
:10418000880F96958795089591505040660F771F38
:10419000881FD2F70895629FD001739FF001829F1C
:1041A000E00DF11D649FE00DF11D929FF00D839FC6
:1041B000F00D749FF00D659FF00D9927729FB00D63
:1041C000E11DF91F639FB00DE11DF91FBD01CF0176
:1041D00011240895991B79E004C0991F961708F0DF
:1041E000961B881F7A95C9F780950895AA1BBB1B5B
:1041F00051E107C0AA1FBB1FA617B70710F0A61BE7
:10420000B70B881F991F5A95A9F780959095BC0107
:10421000CD01089597FB092E07260AD077FD04D01B
:10422000E5DF06D000201AF4709561957F4F089560
:10423000F6F7909581959F4F0895A1E21A2EAA1B3B
:10424000BB1BFD010DC0AA1FBB1FEE1FFF1FA21746
:10425000B307E407F50720F0A21BB30BE40BF50B43
:10426000661F771F881F991F1A9469F760957095CC
:10427000809590959B01AC01BD01CF01089597FBFE
:10428000092E05260ED057FD04D0D7DF0AD0001C1A
:1042900038F450954095309521953F4F4F4F5F4FE3
:1042A0000895F6F790958095709561957F4F8F4FA3
:1042B0009F4F0895EE0FFF1F0590F491E02D099494
:1042C000A0E0B0E0E6E6F1E20C94C921EC01A880A0
:1042D000B980CA80DB80A114B104C104D10441F4C7
:1042E00084E2A82E89EDB82E8BE5C82E87E0D82E63
:1042F000C601B5012DE133EF41E050E00E943F21BE
:1043000027EA31E440E050E00E94CB207B018C01A1
:10431000C601B5012DE133EF41E050E00E943F219D
:10432000CA01B9012CEE34EF4FEF5FEF0E94CB20B2
:104330006E0D7F1D801F911F97FF04C0615070405C
:1043400080409048688379838A839B839B01AC017A
:104350005F77B901CA01CDB7DEB7EAE00C94E52179
:104360000E94602108958FEB91E00E9460210895E2
:104370006093BF017093C0018093C1019093C2010B
:1043800008952F923F924F925F926F927F928F92F9
:104390009F92AF92BF92CF92DF92EF92FF920F93D4
:1043A0001F93CF93DF93CDB7DEB7CA1BDB0B0FB6DE
:1043B000F894DEBF0FBECDBF09942A88398848889B
:1043C0005F846E847D848C849B84AA84B984C88431
:1043D000DF80EE80FD800C811B81AA81B981CE0F28
:1043E000D11D0FB6F894DEBF0FBECDBFED0108950D
:0443F000F894FFCF6F
:1043F40074696C653A2000436F6C6C6973696F6E05
:10440400202D20436F6C3A0020526F773A000A4403
:104414006562756720426F6D6265726D616E0A0038
:10442400506C6179657220583A000A506C61796564
:104434007220593A000A52414D20467265653A008D
:104444000A4350553A20000A56657273696F6E3AF2
:1044540020312E3161004C6F6164696E672E2E2EFF
:1044640000426F6D6220583A0020593A004272654A
:10447400616B61626C6520526967687400427265A1
:10448400616B61626C65204C6566740042726561A3
:104494006B61626C6520557000427265616B61628C
:1044A4006C6520446F776E004C4F414445520001C7
:1044B40000000001010101010101010101010101EB
:1044C40001010101010101000100000000000000E0
:1044D40000020200000000000000000100010000D2
:1044E40000000000000002020000000000000000C4
:1044F40001000100000000000000000202000000B2
:1045040000000000000100010000010000010000A3
:10451400020200000100000100000100010000008F
:104524000000000000020200000000000000000182
:104534000001000000000000000002020000000072
:104544000000000001000100000100000100000261
:104554000200000100000100000100010000000051
:104564000000000002020000000000000000010042
:104574000100000000000000000202000000000032
:104584000000000100010000000000000000020221
:104594000000000000000000010001010101010110
:1045A40001010101010101010101010101010000F9
:1045B40000000000000000000000000000000000F7
:1045C40000000000000000000000000000000000E7
:1045D40000000000000000000000000000000000D7
:1045E40000000000000000000000000000000000C7
:1045F40000000000000000000000000000000000B7
:1046040000000000000000000000000000000000A6
:104614000000000000000000000000000000000096
:104624000000000000000000000000000000000086
:104634000000000000000000000000000000000076
:104644000000000000000000000000000000000066
:104654000000000000000000000000000000000056
:1046640000000000000000000000000001F5060149
:1046740000000000560EC01C000000001B1CC01CE3
:08468400B11BE21BC21B0B1C61
:00000001FF
