:100000000C94F3010C941B020C941B020C941B0225
:100010000C941B020C941B020C941B020C941B02EC
:100020000C941B020C941B020C941B020C942116C2
:100030000C941B020C941B020C941B020C941B02CC
:100040000C9498160C941B020C94C7180C94151958
:100050000C941B020C941B020C941B020C941B02AC
:100060000C941B020C941B02426F6D6265726D61F1
:100070006E206279204C696D697465643200426F4C
:100080006D6265726D616E206279204C696D697474
:1000900065640003053F213F0A100A1208120E1C76
:1000A0000E0C1E0C141A14161F161E131E1E1B1ED9
:1000B0001E1F1E3F213F3A2F3A173D173F213F1881
:1000C0001F02040A041F0E04040E1F0A1F0A0E0E4C
:1000D0001F04110E2E252E2F2A2E262929021F023B
:1000E000081F08150E04040E150E15151B151B040C
:1000F0000604040C040000000017000300031F0A9C
:100100001F16371A1904130A153A000300000E11BE
:10011000110E000A040A040E040030000404040056
:1001200010001804031F111F121F101D15171115A1
:100130001F07041F17151D1F151D01011F1F151F68
:1001400017151F000A00003200040A110A0A0A11DA
:100150000A040115020E11171E051E1F150A0E11A5
:100160000A1F110E1F15111F05010E111D1F041F5F
:10017000111F1108100F1F041B1F10101F061F1E38
:10018000040F0E110E1F09060E112E1F051A12154F
:1001900009011F011F101F0F180F1F0C1F1B041B2D
:1001A000031C03191513001F11030418111F00026B
:1001B00001022020200001020C121E1F120C0C1242
:1001C000120C121F0C1A14041E05242A1E1F021CD6
:1001D000141D1020201D1F0814111F101E041E1EA8
:1001E000021C0C120C3E0A040C123E1E04021416D1
:1001F0000A020F120E101E0E100E1E081E120C12F6
:1002000026281E322A26041E21001F00211E04015A
:1002100002013F213F0A4E6F205344206361726404
:10022000206F720A6E6F204C4F414445522E484554
:10023000580A0A153A45786974001D20466C6173A6
:1002400068696E670A20206C6F616465722E2E2EBD
:100250000A0A444F4E2754205455524E204F4646CA
:1002600021004E4F20424154544552590A0A504CE5
:10027000454153450A5455524E204F464600177388
:1002800061766500166261636B00157479706500B4
:100290000A0A0A153A6F6B617920163A6564697427
:1002A00000596F7520656E74657265640A00540AA2
:1002B00003E181867F3E186D830F0F0E01838660F8
:1002C00033186DC3198F1803C38E6033186DE33074
:1002D000CF1803C39E603630CDE360CF3006C79E93
:1002E0007E3E30CDB360CF300CC6F6603330D9B629
:1002F00060CF33CFCCF66061B0DB1E60CF30D86CFE
:10030000E6C061B0DB1E618F19986CC6C063B19BFB
:100310000E330F0FB078C6FF7E1F1B061E0F17533C
:100320004400161378001613140015102000152031
:10033000100000000500893008023802497868146E
:100340000000450068010000050068013801000058
:100350000500380168010000F6E8DBCFC3B8AEA4A1
:100360009B928A827B746E68625C57524E4945410B
:100370003E3A3734312E2C2927252321800384034C
:100380000101F7030101FF03000000002400270022
:100390002A0000000000250028002B0000000000BB
:1003A00023002600290004040404040404040202B7
:1003B00002020202030303030303010204081020E4
:1003C00040800102040810200102040810200000EF
:1003D0000007000201000003040600000000000006
:1003E00000004902811A11241FBECFEFD8E0DEBF02
:1003F000CDBF13E0A0E0B1E0E0EEFEE302C0059067
:100400000D92A43CB107D9F717E0A4ECB3E001C00A
:100410001D92A130B107E1F713E0C6EED3E004C0AE
:100420002297FE010E94D21EC23ED107C9F70E9448
:10043000D71A0C946E1F0C9400008695869590E058
:10044000AA2797FDA095BA2FBC01CD010E94521D8D
:1004500020E030E040E05FE30E94BB1C0E941F1DD3
:10046000DC01CB0108958695869590E0AA2797FD3B
:10047000A095BA2FBC01CD010E94521D20E030E0B2
:1004800040E05FE30E94BB1C0E941F1DDC01CB010A
:100490000895E4ECF3E084E8DF011D928A95E9F722
:1004A000109213041092120480EB93E090931104C5
:1004B000809310048091A60380934E048091A7033B
:1004C00080934F0408950F9380914904882309F481
:1004D00041C0609132047091330480913404909152
:1004E000350429E130E040E050E00E94931E6115A0
:1004F00071058105910571F16091E7016F5F80E100
:1005000094E04091E80122E001E00E940709409157
:10051000E8014F5F80E194E06091E70121E002E0B3
:100520000E9407096091E7016F5F4091E8014D5F0C
:1005300080E194E022E001E00E9407096091E70178
:100540006D5F4091E8014F5F80E194E021E002E0BF
:100550000E9407090F910895EF92FF920F9380E197
:10056000E82E84E0F82EC7016091A2034091A30316
:100570002091A4030091A5030E940709C70160E030
:100580000E9435086091A2036F5F4091A3034F5F03
:10059000C7010E943D08C70161E00E9435080F9124
:1005A000FF90EF900895FF920F931F93082FF62E60
:1005B0008FED96E060E071E00E94531C10E085E151
:1005C00090E09801289F8001299F100D389F100D01
:1005D00011240F0D111D07511E4F8FED96E0F801EC
:1005E00060814AE050E00E94351CF8010081023031
:1005F00028F0023011F481E002C001C080E01F91B8
:100600000F91FF9008950F931F93162F0E941D02C4
:10061000082F812F0E943302182F8FED96E067E09C
:1006200071E00E94531C8FED96E0602F4AE050E08D
:100630000E94231C8FED96E06FE071E00E94531C36
:100640008FED96E0612F4AE050E00E94351C89EE64
:1006500093E00E944516602F6F5F812F0E94D302A6
:100660008823D1F08FED96E063E171E00E94561C83
:10067000212F30E085E190E0289FF001299FF00DC7
:10068000389FF00D1124E751FE4FE00FF11D11824C
:1006900089EE93E00E944B16602F6150812F0E94DB
:1006A000D3028823D9F08FED96E063E271E00E94D7
:1006B000561C212F30E085E190E0289FF001299F12
:1006C000F00D389FF00D1124E751FE4FE00FF11DA2
:1006D0003197108289EE93E00E944B16812F815052
:1006E000602F0E94D3028823D9F08FED96E062E359
:1006F00071E00E94561C812F90E0019725E130E0C7
:10070000829FF001839FF00D929FF00D1124E00F66
:10071000F11DE751FE4F108289EE93E00E944B16C7
:10072000812F8F5F602F0E94D3028823D9F08FED35
:1007300096E06FE371E00E94561C812F90E00196D5
:1007400025E130E0829FF001839FF00D929FF00D34
:100750001124E00FF11DE751FE4F108289EE93E066
:100760000E944B161F910F9108952F923F924F9226
:100770005F926F927F928F929F92AF92BF92CF9231
:10078000DF92EF92FF920F931F93DF93CF9300D0EE
:1007900000D000D0CDB7DEB76624772422243324DE
:1007A00055C0ED81FE8180818823B9F16091A2035B
:1007B0004091A3032091A4030091A50384EC93E04E
:1007C00070E050E030E010E07201CB80DC80F4E0BB
:1007D000AF2EB12CE4E08E2E912C0E94C50E882302
:1007E000E1F08FED96E06EE471E00E94531C8FED16
:1007F00096E069814AE050E00E94231C8FED96E06C
:100800006FE571E00E94531C8FED96E06A814AE02B
:1008100050E00E94351C81E02EC0F981FF5FF98312
:100820002D813E812F5F3F4F3E832D8384E090E0FA
:10083000480E591EF53109F0B4CF0894611C711CA3
:10084000280E391E9CE069167104A1F06A822B8281
:100850003C8225E130E0629EF001639EF00D729EC5
:10086000F00D1124E751FE4FFE83ED8319824424DD
:10087000552497CF80E026960FB6F894DEBF0FBEC2
:10088000CDBFCF91DF911F910F91FF90EF90DF903F
:10089000CF90BF90AF909F908F907F906F905F9020
:1008A0004F903F902F9008958091A50340E350E032
:1008B000481B51099091A7038091A303282F30E092
:1008C000290F311D241735070CF4A9014093A30308
:1008D0000E94B5038823A1F081E08093A703809153
:1008E000A50320E330E0281B31098091A30390E0A9
:1008F0000197821793070CF49C012093A30308959A
:1009000082E08093A70308958091A303282F30E00D
:100910008091A703281B310937FF02C020E030E097
:100920002093A3030E94B503882349F081E08093BC
:10093000A7038091A3038F5F8093A303089582E0B0
:100940008093A70308958091A40344E550E0481BD9
:1009500051099091A6038091A203282F30E0290F1E
:10096000311D241735070CF4A9014093A2030E94FE
:10097000B5038823A1F081E08093A6038091A403AE
:1009800024E530E0281B31098091A20390E0019713
:10099000821793070CF49C012093A2030895809181
:1009A0004F048093A60308958091A203282F30E07E
:1009B0008091A603281B310937FF02C020E030E0F8
:1009C0002093A2030E94B503882349F081E080931D
:1009D000A6038091A2038F5F8093A2030895809164
:1009E0004E048093A6030895AF92BF92DF92EF92D8
:1009F000FF920F931F93CF93DF93EE24FF24DD2408
:100A0000A5E1AA2EB12C22C08881813049F480E171
:100A100094E0612F4D2D24E004E00E9407090AC0F4
:100A2000823041F480E194E0612F4D2D24E004E018
:100A30000E943D0921961C5F143531F70894E11C92
:100A4000F11C84E0D80E80E3D81659F0EA9CE0014E
:100A5000EB9CD00DFA9CD00D1124C751DE4F10E055
:100A6000D3CFDF91CF911F910F91FF90EF90DF9047
:100A7000BF90AF90089580914804882311F40E949C
:100A8000F404089580914904882309F43DC00E942C
:100A9000E01620914A0430914B0440914C0450914F
:100AA0004D04621B730B840B950B68587341804097
:100AB000904050F1109249048FED96E065E671E0A8
:100AC0000E94531C0E94E016AB01BC0180914A04B5
:100AD00090914B04A0914C04B0914D04481B590BCC
:100AE0006A0B7B0B8FED96E02AE030E00E94FE1B44
:100AF0008FED96E06CE671E00E94561C8091E70154
:100B00006091E8010E9403030895EF92FF920F9312
:100B10001F93E62E8695869590E0AA2797FDA095CF
:100B2000BA2FBC01CD010E94521D20E030E040E010
:100B30005FE30E94BB1C0E941F1D02E0660F771F2F
:100B4000881F991F0A95D1F76093E701E694E69410
:100B5000FF240027F7FC0095102FC801B7010E9461
:100B6000521D20E030E040E05FE30E94BB1C0E9489
:100B70001F1D12E0660F771F881F991F1A95D1F766
:100B80006093E80181E0809349040E94E01660933D
:100B90004A0470934B0480934C0490934D040FEDE2
:100BA00016E0C80169E771E00E94531CC80160911A
:100BB000E7014AE050E00E94231CC80165E871E0AB
:100BC0000E94531CC8016091E8014AE050E00E9475
:100BD000351C40914A0450914B0460914C04709133
:100BE0004D04C8012AE030E00E94FE1B1F910F91C6
:100BF000FF90EF9008958EEC93E065E00E94E5078A
:100C0000882341F090E080914804882309F491E022
:100C1000909348048EEC93E066E00E94E5078823F9
:100C200031F084EC93E068E670E00E94A4128EEC50
:100C300093E060E041E00E94EF07882319F00E94F2
:100C4000D40420C08EEC93E062E041E00E94EF0704
:100C5000882319F00E94A30415C08EEC93E061E094
:100C600041E00E94EF07882319F00E9484040AC023
:100C70008EEC93E063E041E00E94EF07882311F0DF
:100C80000E9454048EEC93E064E00E94E507882300
:100C900071F08091A40386952091A2036091A50331
:100CA00066959091A303690F820F0E9485050895B0
:100CB00080914804882309F44AC080E194E069E8FF
:100CC00071E00E94531C80E194E06BE971E00E94A6
:100CD000531C80E194E06091A2034AE050E00E943E
:100CE000231C80E194E065EA71E00E94531C80E1DE
:100CF00094E06091A3034AE050E00E94231C80E14D
:100D000094E060EB71E00E94531C84EC93E00E943D
:100D1000150EBC0180E194E04AE050E00E94121CF4
:100D200080E194E06BEB71E00E94531C84EC93E053
:100D30000E94060E682F80E194E04AE050E00E9495
:100D4000231C80E194E062EC71E00E94531C089542
:100D500084EC93E00E948D10882361F00E94FB05D3
:100D60000E9458060E9442050E943B050E94AC0268
:100D70000E94630208950F931F930FED16E0C801C0
:100D800040E855E260E070E00E945019C80161ED52
:100D900071E00E94561C04EC13E0C8010E94A912E5
:100DA000C8010E945810C80165E10E94F40D81E05D
:100DB0008093DC03C8016EE770E00E94A41280E11A
:100DC00094E063E970E00E94920B1F910F910895E7
:100DD000882319F48CB5806202C08CB58F7D8CBDE0
:100DE00008959CB5937F982B9CBD08952CB5382F02
:100DF00033702C7F322B3CBD2DB590E095958795B7
:100E00009595879581702E7F822B8DBD08958AE000
:100E100061E00E9463188AE061E00E94F7178CB5D8
:100E200080618CBD8CB580648CBD8DE061E00E94DA
:100E3000F7178BE061E00E94F7170895FC0181E04D
:100E40008083089585E070E00E94971708956F925F
:100E50007F928F929F92AF92BF92CF92DF92EF924A
:100E6000FF920F931F93CF93DF93EC0189819A81B7
:100E70008C0124E0000F111F2A95E1F7081B190BC4
:100E800085E10E947517BC01600F711F84E07695A3
:100E900067958A95E1F77A8369838881882381F150
:100EA0002E813F816217730710F4B90106C088854F
:100EB00099858617970708F4BC0100D000D080E020
:100EC00090E040E050E0E884F98400E010E0AD807C
:100ED000BB24CC24DD246C80772488249924EDB7AE
:100EE000FEB761827282838294820E94691C6B8346
:100EF0000F900F900F900F9085E070E00E94971771
:100F0000DF91CF911F910F91FF90EF90DF90CF90E5
:100F1000BF90AF909F908F907F906F900895FC014D
:100F20008CE39FE09383828384E0818381E08487E4
:100F30000895CF93DF93EC018C8590E08F719070D2
:100F4000892B69F584E10E947517AA2797FDA09562
:100F5000BA2FBC01CD010E94521D26EE3FE34EEC9C
:100F600050E40E94DE1D0E94241D9B01AC017B8386
:100F70006A836115710589F084E08983B901FE01F6
:100F800020E0848195816817790710F429830AC0CD
:100F90002F5F32962430A9F702C08FEF89838C85AA
:100FA0008F5F8C87DF91CF910895FC0188E080836B
:100FB00089E0818387E0828386E0838384E0848381
:100FC00082E0858381E18683089520E0FC01E60FBD
:100FD000F11D8781813009F421E0822F0895E62FE9
:100FE000F0E0423040F420E0E80FF91F87818150A3
:100FF0008E3F88F40FC0E80FF91F87818F3F11F4EF
:1010000020E009C020E090E0642F70E00E946C1E98
:10101000019709F421E0822F08950F931F93CF9336
:10102000DF93EC0110E00FEF888162E00E94F71778
:1010300088810E9496182F81892B19F42F5F2F83A6
:1010400007C0222349F02F3F11F41F8201C00F83F4
:10105000888160E00E94F7171F5F2196173021F703
:10106000DF91CF911F910F910895FC01678F60A3CD
:101070000895FC01678F40A30895FC016435A8F52D
:1010800047FD33C040338CF5878D942F959595950A
:101090009595772767FD70954770882399F0E4E56B
:1010A0009E02F0011124E60FF71FE05BFB4F81E089
:1010B00090E002C0880F991F4A95E2F72081282B03
:1010C00020830895E4E59E02F0011124E60FF71F46
:1010D000E05BFB4F81E090E002C0880F991F4A95CA
:1010E000E2F780952081282320830895AF92BF9254
:1010F000CF92DF92EF92FF920F931F93CF93DF93E4
:10110000EC01162FF42EE22EAA24402F552747FD7E
:1011100050958F2D992787FD9095481B590B57FFA8
:1011200003C0509541955F4F2E2D332727FD3095F5
:10113000812F992787FD9095281B390B37FF03C016
:10114000309521953F4F2417350744F4AA24A394E2
:101150008F2DF12E182F802F0E2DE82EE11634F44E
:101160008E2DE12E182F802F0F2DF82EDE2CD11A68
:10117000202F332727FD30958F2D992787FD9095B8
:10118000281B390B37FF03C0309521953F4FB22EF6
:10119000F0161CF0CC24CA9402C0CC24C3948D2D2C
:1011A000D7FC8F5F082F059511C0AA2021F0CE0132
:1011B0006F2D412F03C0CE01612F4F2D0E943D089E
:1011C0000B1907FF02C0FC0C0D0D1F5FE1166CF739
:1011D000DF91CF911F910F91FF90EF90DF90CF9013
:1011E000BF90AF9008950F93042F322F262F2150D8
:1011F000230F0E9476080F9108950F93362F042F26
:101200000150020F232F0E9476080F9108959F929C
:10121000AF92BF92CF92DF92EF92FF920F931F9304
:10122000CF93DF936C01B62E942EA02EC0E0D0E0B9
:10123000E62EFF24E7FCF094022F112707FD1095FE
:101240000E0D1F1D06C0C601492D2A2D0E94FD0846
:1012500021966B2D6C0FCE018E0D9F1D801791076F
:1012600094F3DF91CF911F910F91FF90EF90DF905A
:10127000CF90BF90AF909F900895CF92DF92EF9262
:10128000FF920F931F937C01162FD42EC22E0E9423
:10129000F3084D2D4150400FC701612F2C2D0E94A6
:1012A000F308C701612F4D2D202F0E94FD0811501A
:1012B0001C0DC701612F4D2D202F0E94FD081F918D
:1012C0000F91FF90EF90DF90CF9008952F923F9273
:1012D0005F926F927F928F929F92AF92BF92CF92C6
:1012E000DF92EF92FF920F931F93DF93CF9300D083
:1012F00000D000D0CDB7DEB79E838D83C62ED42E0E
:10130000EE24E394E21A8EEF289F502C1124842EB1
:101310008A94962E9A94A42EA394B62EB394F22E69
:10132000662423E0722E10E0C801847090709A83C6
:101330008983F801E270F070FC83EB8398E0292E3A
:10134000312C202231220170107054C0E7FC04C0FF
:10135000FA94F2E05F0EE50C639489819A81892BFF
:1013600071F04F2D4D0D8D819E816B2D0E943D089A
:101370006F2D6C0D8D819E814A2D0E943D08EB8161
:10138000FC81EF2B71F04D2D4F198D819E816B2DBE
:101390000E943D086F2D6C0D8D819E81482D0E940D
:1013A0003D082114310471F06C2D6F198D819E81DF
:1013B0004A2D0E943D084F2D4D0D8D819E81692D36
:1013C0000E943D080115110571F06C2D6F198D817A
:1013D0009E81482D0E943D084D2D4F198D819E8183
:1013E000692D0E943D08E70CF2E07F0E8A949A94E2
:1013F000A394B3946F140CF4A9CF26960FB6F89467
:10140000DEBF0FBECDBFCF91DF911F910F91FF9037
:10141000EF90DF90CF90BF90AF909F908F907F9094
:101420006F905F903F902F9008954F925F926F92D0
:101430007F928F929F92AF92BF92CF92DF92EF9264
:10144000FF920F931F93CF93DF93EC01A62E742E80
:101450009E2DFF24F394F21A8EEF289F802C1124E6
:10146000B42EBA9453E0C52ECE0CE22EDD2443E018
:10147000942E10E031E0432E512C40225122692E4F
:1014800063940270107034C0F7FC04C0EA9482E0E8
:10149000880EF80CD3944114510489F06D2D6A0D17
:1014A000472D4E192E2D220F260DCE010E94FD082C
:1014B0006E2D6A0DCE014B2D2C2D0E94FD080115BD
:1014C000110589F06A2D6D19472D4E192E2D220F09
:1014D000260DCE010E94FD086A2D6E19CE014B2DFE
:1014E0002C2D0E94FD08F90C82E0980EBA94C80ECB
:1014F000DE1454F2DF91CF911F910F91FF90EF9086
:10150000DF90CF90BF90AF909F908F907F906F9023
:101510005F904F9008957F928F929F92AF92BF926B
:10152000CF92DF92EF92FF920F931F936C01962E52
:10153000A42EF22E7E2C760E1EEFE19E102D11248D
:10154000812E820E672D282D0E94F308B02EBA0C32
:10155000BA94C601672D4B2D282D0E94F308AE0CBE
:10156000100FC601692D4A2D212F0E94FD08F90C8C
:10157000FA94C6016F2D4A2D212F0E94FD08C60145
:10158000672D4A2D2E2D01E00E946609FE18C60126
:101590006F2D4A2D2E2D02E00E946609BE18C6014D
:1015A0006F2D4B2D2E2D04E00E946609C601672D7C
:1015B0004B2D2E2D08E00E9466091F910F91FF9080
:1015C000EF90DF90CF90BF90AF909F908F907F90E3
:1015D00008958F929F92AF92BF92CF92DF92EF9237
:1015E000FF920F931F936C01162FA42E922EF02EB4
:1015F000BE2C8E2C860E2EEFE29EE02C11242E2D7A
:10160000290D682D0E940709AB0CFA94FE0C1150AD
:10161000190D1B19C601612F4A2D2B2D01E0EF2C4E
:101620000E94150AC601682D4A2D2B2D02E00E944A
:10163000150A1F910F91FF90EF90DF90CF90BF9010
:10164000AF909F908F9008953F924F925F926F92CC
:101650007F928F929F92AF92BF92CF92DF92EF9242
:10166000FF920F931F93CF93DF934C01362E442E9E
:10167000F901A490319654906F010894C11CD11CBB
:101680008A2D992787FD9095079668E070E00E9463
:10169000801EE62EFF24E7FCF09400E0C0E0D0E0DE
:1016A00060E8662E712C26C0E12FE595E595E5955D
:1016B000FF27E7FDF095EC0FFD1FEC0DFD1DE491FC
:1016C0002E2F30E0812F8770A30102C055954795DA
:1016D0008A95E2F724233523232B31F0612F630D04
:1016E000C4014B2D0E943D081F5F1A15ECF20F5FDD
:1016F000CE0DDF1D051524F410E0B02EB40CF5CF8F
:10170000DF91CF911F910F91FF90EF90DF90CF90DD
:10171000BF90AF909F908F907F906F905F904F9011
:101720003F900895DC01FB0184918F5F14968C93A8
:101730001497319684918F5F15968C9315973196F7
:101740005E96FC93EE935D9708953F924F925F9261
:101750006F927F928F929F92AF92BF92CF92DF92C1
:10176000EF92FF920F931F93CF93DF93EC01862E9E
:10177000A42E422F102F3F8C23E526170CF4ABC06C
:101780003FE23A150CF4A7C0C02EDD248C8190E016
:1017900001979C01C29EC001C39E900DD29E900DE8
:1017A0001124262F332727FD3095820F931F1816FB
:1017B00019060CF090C08D8190E09C01C29EC00182
:1017C000C39E900DD29E900D11242A2D332727FD04
:1017D0003095820F931F181619060CF07CC09924BF
:1017E000442E55246DC09C012150304042175307B0
:1017F00011F460E00EC0429EC001439E900D529EC7
:10180000900D1124840F951FED8DFE8DE80FF91FAB
:1018100064914C9DC0014D9D900D5C9D900D1124D7
:10182000682C680EBB24792C780C3FC0E62EFF2470
:1018300060FF19C0113039F44B2D4A0DCE01672DD0
:101840000E943D082EC02C9DC0012D9D900D3C9DF9
:10185000900D11244A2D480FCE01662D212F012F06
:101860000E9407091EC098A18F8D9817D1F09F8FF5
:10187000113039F44B2D4A0DCE01672D0E943D08E1
:101880000FC02C9DC0012D9D900D3C9D900D1124ED
:101890004A2D480FCE01662D212F012F0E940709E6
:1018A0003F8EF594E7946E2DB3942B2D332727FDAF
:1018B00030958D8190E0281739070CF4B7CF9394B9
:1018C000492D552747FD50958C8190E048175907C1
:1018D0000CF489CF3F8EDF91CF911F910F91FF9034
:1018E000EF90DF90CF90BF90AF909F908F907F90C0
:1018F0006F905F904F903F9008950F93CF93DF9339
:10190000EC01262F6A3049F48D819885899F802DBE
:1019100011249A85980F9A8726C06D3029F1698520
:101920004A8508850E94A50B9C816885969F402D5D
:1019300011248985480F49878F818823A9F055276D
:1019400047FD5095699F9001112484E590E0821B2A
:10195000930B8417950744F49D81699F902D112462
:101960008A85890F8A87198681E090E0DF91CF917F
:101970000F9108951F93CF93DF93EC01162FF894E6
:101980008E8560E00E9463188F8518161CF460E055
:101990000E9463181EBD0DB407FEFDCF8EB58F8566
:1019A00018161CF461E00E9463187894DF91CF91BF
:1019B0001F910895FF920F931F93CF93DF93EC0134
:1019C000FF2400E010E06F2D6064CE010E94BA0C8D
:1019D000CE0160E80E94BA0C8E8561E00E94631817
:1019E0008F8518161CF460E00E946318F801E05B14
:1019F000FB4F90E080818EBD0DB407FEFDCF8EB50C
:101A00009F5F31969435B1F78F8518161CF461E00D
:101A10000E946318F3940C5A1F4F86E0F81699F64B
:101A2000CE0160E40E94BA0CDF91CF911F910F911B
:101A3000FF900895CF93DF93DC0188EF91E0E0E51C
:101A4000F4E0EF019C01199221503040E1F7199622
:101A50001C9219971A961C92DF91CF910895EF92DC
:101A60000F93CF93DF93EC014D876C872E87E88A25
:101A70000F8781E088878F8F18A28F83CE0163E95B
:101A800070E00E94920B0E94070781E00E94E80626
:101A900085E00E94F6068CE00E94F1068D8561E0EB
:101AA0000E94F7178C8561E00E94F7178E8561E030
:101AB0000E94F717888918161CF461E00E94F71736
:101AC0008F8518161CF461E00E94F7178889181694
:101AD0006CF460E00E9463186AE070E080E090E0DF
:101AE0000E941417888961E00E946318EC852E2FEC
:101AF000332727FD3095F901EA55FC4FE491F0E0DA
:101B0000EE0FFF1FEE56FC4F859194919C8B8B8BB3
:101B100026543C4FF90184918A8FED852E2F33276F
:101B200027FD3095F901EA55FC4FE491F0E0EE0F06
:101B3000FF1FEE56FC4F859194919A8B898B26540A
:101B40003C4FF9018491898FEF852E2F332727FD94
:101B50003095F901EA55FC4FE491F0E0EE0FFF1FDC
:101B6000EE56FC4F859194919E8B8D8B26543C4F65
:101B7000F90184918B8FEE852E2F332727FD309529
:101B8000F901EA55FC4FE491F0E0EE0FFF1FEE562D
:101B9000FC4F85919491988F8F8B26543C4FF9017F
:101BA00084918C8FCE0161E20E94BA0CCE0164E177
:101BB0000E94BA0C8B8587FF02C08FE78B876B85ED
:101BC0006068CE010E94BA0CCE0160E20E94BA0C9D
:101BD000CE016CE00E94BA0CCE010E94DA0CDF91BB
:101BE000CF910F91EF900895FC01262FE458FF4FFD
:101BF00088EE93E070E00E94801E6083EC57F04016
:101C0000822F64E10E94601E87A30895FC01E458BE
:101C1000FF4F60818AE0689FB00111243A9780816C
:101C200091810E946C1E862F0895DF93CF9300D080
:101C3000CDB7DEB78091A9039091AA03009711F464
:101C400081E097E09E012F5F3F4F281B390BC901B0
:101C50000F900F90CF91DF910895CF93DF93DC0128
:101C6000E0E8FFE685919491ED01C95ADF4FAD019F
:101C700043595F4F8150904C09F04EC0E6E9FFE6B2
:101C8000E491E883E7E9FFE6E4911496EC93149776
:101C9000E8E9FFE6E4911596EC931597E9E9FFE68C
:101CA0008591949117969C938E931697EBE9FFE696
:101CB0008591949119969C938E931897EDE9FFE680
:101CC000E4919996EC939997EEE9FFE6E491989662
:101CD000EC939897EFE9FFE6E491EA01E883E0EA04
:101CE000FFE6859194915D969C938E935C97E2EAD2
:101CF000FFE6859194915F969C938E935E97E4EABC
:101D0000FFE68591949191969C938E939097E6EA45
:101D1000FFE68591949132C08CE3888314961C92DF
:101D200014972FEF15962C93159780E293E0179652
:101D30009C938E93169784ED93E019969C938E93C3
:101D4000189781E099968C93999798968C93989789
:101D5000FA0120838CEA9DE05D969C938E935C97BC
:101D60008EED9DE05F969C938E935E9784E79EE058
:101D700091969C938E9390978CE39FE093969C937F
:101D80008E939297DF91CF9108958F929F92AF9209
:101D9000BF92CF92DF92EF92FF920F931F93DF9348
:101DA000CF93CDB7DEB76E157F050CF452C0C501D9
:101DB0008E0D9F1D681779070CF04BC04C155D0503
:101DC0000CF447C0C4018C0D9D1D481759078CF1B8
:101DD00040C0C5018E0D9F1D281739070CF043C068
:101DE0004C155D050CF43FC0C4018C0D9D1D4817BA
:101DF0005907FCF038C0C5018E0D9F1D6817790783
:101E0000CCF54C155D05B4F1C4018C0D9D1D481732
:101E100059077CF02FC0AE0CBF1C2A153B055CF4A3
:101E20004C155D0544F080E08C0C9D1C481559054F
:101E30001CF481E001C080E0CF91DF911F910F91F0
:101E4000FF90EF90DF90CF90BF90AF909F908F90DA
:101E5000089561507040260F371F6F5F7F4F2E151A
:101E60003F050CF0B6CF41505040400F511F6E154A
:101E70007F050CF62E153F0574F6DDCFEF92FF922D
:101E80000F931F93CF93DF937C018C01045B1F4F53
:101E9000C8010E941A0DC8016AE372E00E94101B7B
:101EA000C8010E94DA0C83E00E94F6068CED91E0F6
:101EB000EEEFFFE3099582E590E0E80EF91EF701E9
:101EC0001082C80165E172E00E945B1BC8010E949C
:101ED000DA0CE701C854D040CE010E940D08CE01B3
:101EE00064E00E94E507882339F462E370E080E053
:101EF00090E00E941417F0CFDF91CF911F910F91C6
:101F0000FF90EF9008950F931F93CF93DF93EC0111
:101F10008C01045B1F4FC80161E040E00E9439085A
:101F2000FE01EB5AFF4FC05BDF4F85E59881891BAF
:101F3000808326961882C655D040698D613061F144
:101F4000613028F0888D653008F03FC039C0CE017F
:101F500085960E948C13CE0160E00E942207C80182
:101F60000E941A0DC80162E672E00E94101BC801AF
:101F70000E94DA0C83B7817F846083BF83B781605E
:101F800083BF83B7816083BF889583B78E7F83BF0C
:101F900083B78E7F83BF1FC0C259DF4F888199816D
:101FA000AA81BB818F709070A070B0700897A10556
:101FB000B10518F4C80167E00CC0C80168E709C0A2
:101FC000882349F06B5FC80104C0882321F0C80151
:101FD0006FE20E94331BDF91CF911F910F91089503
:101FE000AF92BF92CF92DF92EF92FF920F931F9327
:101FF000CF93DF93EC01CD57DF4F8881C358D0409A
:10200000882309F44AC08C3010F010E002C01CE0B4
:10201000181BCC5ADF4F81E08883C455D0406CE454
:10202000C62ED12CCC0EDD1EC60160E00E94350804
:1020300051E5A52EB12CAC0EBD1EF50100814DE27F
:10204000F42E4F2D401B410F0D5FC60160E024E5CB
:1020500033E0E32E0E94E90AC60161E00E943508E0
:10206000F5010081F01AF10E0D5FC60160E04F2D01
:1020700024E50E948B0ACB5ADF4F84E08993F50157
:102080008081181B115D1883AB9669917991C60107
:102090000E94101B888181508883DF91CF911F910E
:1020A0000F91FF90EF90DF90CF90BF90AF90089589
:1020B0008F929F92AF92BF92CF92DF92EF92FF9258
:1020C0000F931F934C01FC01A28CB38CCC24DD2414
:1020D0000E94EE167B018C01F401818092800E94A7
:1020E000EE16860E971EE094F09400951095C801A8
:1020F000B701A60195010E94411E860E971EC401DC
:102100000E94B21C1F910F91FF90EF90DF90CF9033
:10211000BF90AF909F908F900895AF92BF92CF9253
:10212000DF92EF92FF920F931F93CF93DF93EC0117
:10213000EDE7AE2EB12CA80EB91EF501E080F180BE
:10214000028113810E94E016E61AF70A080B190BA8
:102150007CE7C72ED12CCC0EDD1EF601808190E0ED
:10216000A0E0B0E08E159F05A007B10708F081C080
:102170008E0108581F4FF80180819181A281B3819F
:102180000097A105B10509F474C00E94E016F6019C
:102190002081620F711D811D911DF5016083718386
:1021A00082839383FE01E259FF4F80819181A28156
:1021B000B3810196A11DB11D80839183A283B38356
:1021C000F80110821182128213820E94EE16CC58FE
:1021D000DF4F688379838A839B83C457D040CE01C5
:1021E0000E942707CE010A960E940D08CE0148964C
:1021F0000E9499078E010B5D1F4FC8010E94F913C1
:10220000C8010E94D114C8010E94E81581E026C0CF
:10221000CE010E94F00FCE010E94830F8E01045B5D
:102220001F4FC8010E94DA0CCE5ADF4F8881C25579
:10223000D040882319F4C8010E941A0D0E94EE169E
:10224000C858DF4F688379838A839B8324972881CA
:102250003981621B730B7A936A9380E0DF91CF918F
:102260001F910F91FF90EF90DF90CF90BF90AF90B4
:102270000895C858DF4F88819981AA81BB81C857CA
:10228000D0400097A105B10541F7C2CF2F923F92F0
:102290004F925F926F927F928F929F92AF92BF9276
:1022A000CF92DF92EF92FF920F931F93DF93CF9322
:1022B000CDB7DEB72B970FB6F894DEBF0FBECDBFFC
:1022C0009B878A877A8369835C834B838C0103595C
:1022D0001F4FF8018081882309F41DC18A859B85E1
:1022E0008D5A9F4FFC0110821292E255F040FB87FD
:1022F000EA87108E9CE4E92EF12CEE0EFF1EC7013A
:1023000061E00E9435088AE0282E312C8A859B8561
:10231000280E391EB5E26B2E712C680E791EE981EC
:10232000FA81F491FD83A5E58A2E912C880E991EE1
:10233000F6E5CF2ED12CC80ED91EE0E54E2E512C3D
:10234000480E591E8F5A9F4F9F838E837EE6A72E7D
:10235000B12C8A859B85A80EB91E198708878A85A6
:102360009B850E948D108823D1F39D81992311F4C0
:1023700010E003C0EE81FF811081C70160E040E002
:102380002EEA32E00E94240B8B819C81892B41F044
:10239000145FC70160E0412F2B813C810E94240B18
:1023A000F40110828CE0F6018083C70169817A8193
:1023B0000E94101BF201208130E0C901880F991F93
:1023C000820F931F909581959F4F8D5AF4018083C2
:1023D000EE81FF81208130E0C901880F991F820FB3
:1023E000931F909581959F4F835DF6018083F50142
:1023F000808184FF04C0C7016EE273E003C0C7019F
:102400006AE273E00E945B1BF201208130E0C901A7
:10241000880F991F820F931F909581959F4F8D5A1A
:10242000F4018083F60180818F5F8083EA85FB85DC
:1024300080A5882321F0C70166E273E003C0C701CD
:1024400062E273E00E945B1BF201808190E09C01DC
:10245000220F331F280F391F309521953F4F2D5ADA
:10246000F4012083F60180818F5F8083C7016EE1D4
:1024700073E00E945B1BC10165E00E94E5078823B1
:1024800051F0EA85FB8560A56F5FC3010E9451167C
:10249000C3010E944B16C10164E00E94E507882336
:1024A00099F4E885F9856081262F30E040E050E01E
:1024B000F50180819181A281B38182179307A407DE
:1024C000B50708F16F3FF9F08A859B8583599F4FC7
:1024D0009B878A878FEFEA85FB858083ED56F040E6
:1024E000FB87EA87C30160E00E947D13C3010E945D
:1024F000451681E0EA85FB85808F0DC08A859B8526
:102500000E943E0F2CCFC10166E00E94E5078823A0
:1025100009F425CFF3CF2B960FB6F894DEBF0FBE8C
:10252000CDBFCF91DF911F910F91FF90EF90DF9082
:10253000CF90BF90AF909F908F907F906F905F9063
:102540004F903F902F90089540E050E00E94461138
:102550000895AF92BF92CF92DF92EF920F93CF93F5
:10256000DF936C018CE790E0C80ED91E82E3F60180
:10257000808381E090E0A0E0B0E0B293A2939293D8
:1025800082936F0185EF9FEFC80ED91E8FEFF60182
:10259000808383E99FEFC80ED91EC6010E942D0ECD
:1025A000C6010E941E07C6016FEF0E9422074AE083
:1025B000A42EB12CAC0CBD1CC5010E94D507C501D1
:1025C0000E940D08C60148960E948F07C601845BD1
:1025D0009F4F6DE04BE020E10FE03EE0E32E0E94D4
:1025E0002F0DE601A596CE010E945E16C50165E09D
:1025F0000E94E507882329F0CE0160E00E94511671
:1026000006C0CE0164E373E040E00E949013DF91C6
:10261000CF910F91EF90DF90CF90BF90AF90089542
:102620000F93CF93DF93EC01623009F440C0633025
:1026300030F4662359F0613009F04AC00BC06330B2
:1026400009F43BC0643009F043C03DC0C00FD11D48
:102650004C8B3EC0602F70E0DB01AA0FBB1FA80FA0
:10266000B91F842F90E0880F991F1D962D913C91E2
:102670001E97280F391FF901859194915E969C93BE
:102680008E935D97FC0145915491A42FFE01E60FB6
:10269000F71F478F252F3327842F90E028173907FE
:1026A00008F4A52F6C0F7D1FFB01A0A311C0FC0136
:1026B000E00FF11D478B208F0BC0FC01E00FF11DD7
:1026C000418F228F05C0FC01E00FF11D438F248F45
:1026D000DF91CF910F910895FC01662369F4158A6B
:1026E000138A12A211A2168A10924C0610924B065F
:1026F000109249061092B4000895FF920F931F9311
:102700008C01F62E0E946C130F0D111DF801118221
:102710001F910F91FF90089560E00E947D1308952E
:10272000DF92EF92FF920F931F938C017B01D42EC7
:10273000642F0E947D134D2D50E0FA01EE0FFF1F14
:10274000E00FF11FF486E386FA013896EE0FFF1FC3
:10275000E00FF11F11821082040F151F81E0F801B4
:10276000818389E0848B178A118E138E1F910F91BC
:10277000FF90EF90DF900895CF93DF939C01462F59
:10278000A62FB0E0EC01CA0FDB1F8881882371F10E
:102790008981882359F5FD01EE0FFF1FE20FF31F1A
:1027A0008F8190E0880F991F0580F681E02DE80F5A
:1027B000F91F859194915FEF8F3F950711F418826F
:1027C00015C09A871496AA0FBB1FA20FB31F90E0E3
:1027D000880F991FED91FC91E80FF91F6591749195
:1027E000C9010E9490138F818F5F8F83DF91CF91FA
:1027F000089560E00E94BC1308955F926F927F92EB
:102800008F929F92AF92BF92CF92DF92EF92FF9200
:102810000F931F93CF93DF937C01562EC62EDD249A
:10282000BC016C0D7D1DDB0111968C9111978823E5
:1028300009F4A7C053968C91882309F0A2C08601A1
:10284000000F111F0E0D1F1DE6012896CC0FDD1F76
:10285000CE0DDF1DE881F981EE0FFF1FD8011B9619
:102860004D915C911C97E40FF51F25913491211532
:10287000310509F049C0FB018785813031F41982A7
:102880001882FA01259134913FC0DB0111961C9208
:1028900011978C91882391F0C701652D0E94BC137C
:1028A00088819981880F991FD8011B96ED91FC9121
:1028B0001C97E80FF91F2591349126C0C701652D9B
:1028C0000E946C135EC086E0369527958A95E1F7E5
:1028D0006F70422F4F7105E0369527950A95E1F705
:1028E0002051C701052D0E941013888199810196FE
:1028F00099838883880F991FD501ED91FC91E80F8A
:10290000F91F2591349114C04601880C991CA8E048
:102910006A2E712C6C0C7D1CE301CC0FDD1FCE0DDB
:10292000DF1D5701A80CB91CEBE0F0E0AE0EBF1E96
:10293000B901769567957695679520FDC4CFF70127
:10294000EC0DFD1D862F8F73828B338B13A28E0CA3
:102950009F1CD40192961C921E92919781E0858BC8
:1029600029E436E0C20ED31ED6018C93168AF301F9
:10297000EE0FFF1FEE0DFF1D808191810196918367
:102980008083DF91CF911F910F91FF90EF90DF90A7
:10299000CF90BF90AF909F908F907F906F905F90FF
:1029A000089560E00E94FD130895DF92EF92FF9278
:1029B0000F931F93CF93DF937C01062F10E0DC0170
:1029C000A00FB11F55968C915597882309F4F8C034
:1029D00053968C915397882321F4C7010E946C135E
:1029E000EFC0815053968C93539793968C91939705
:1029F000882309F04BC0E801CC0FDD1FCE0DDF1D91
:102A000089A19AA10196880F991FED8DFE8DE80F7F
:102A1000F91F85919491282F277094962C93949761
:102A2000AC01F3E056954795FA95E1F79A01369592
:102A30002795892F99278695869595968C939597B6
:102A40002F73F7018281289F202D112493962C93B8
:102A50009397F801E35BF94F4170408389A19AA1F4
:102A600001969AA389A35F962C915F9730E0821715
:102A7000930760F090968C91882329F0281B3109E8
:102A80003AA329A303C0C7010E946C13F701E00F0A
:102A9000F11F83A1815083A336893F5F368B428922
:102AA00025A1240F8285280F618D662311F4D22E73
:102AB0000CC0832F992787FD909570E00E94801E9F
:102AC000828D869FD02C1124D20EF701E00FF11FCA
:102AD00024896789662371F0772767FD7095832FB6
:102AE000992787FD90950E94801E808D869F802D5E
:102AF0001124280FF701E00FF11F638D662389F081
:102B0000832F992787FD909570E00E94801ECB014E
:102B100062E070E00E94801E948D899F802D1124B8
:102B2000280F4F3331F0822F2A300CF089E0482FE4
:102B300087FD40E0F8948D2D992787FD9095849628
:102B400064E270E00E94801EE82FFF27E7FDF09509
:102B5000E85AFC4FE491D801A65BB94FEC93F7011A
:102B6000E00FF11F26A130E084A1992787FD909501
:102B7000B901689F9001699F300D789F300D112435
:102B8000F701838190E0B901689F9001699F300D42
:102B9000789F300D1124842F992787FD9095FC0193
:102BA0002E9FC0012F9F900D3E9F900D1124F80184
:102BB000E55BF94F8083045B194FF80180837894BB
:102BC000DF91CF911F910F91FF90EF90DF900895CB
:102BD00060E00E94D514089560914B06662381F150
:102BE000809148068F5F8093480690914A06891726
:102BF00038F130E080914906882309F431E03093C0
:102C000049061092480680914D068823A9F08091CC
:102C1000A80323E4829FC0011124895B8093A80349
:102C200090E070E00E946C1E80934C0605C080917D
:102C30004C068093B40008953323C9F780E0F9CFA0
:102C400008951F920F920FB60F9211242F933F9366
:102C50004F935F936F937F938F939F93AF93BF93A4
:102C6000EF93FF930E94EC15FF91EF91BF91AF910D
:102C70009F918F917F916F915F914F913F912F9194
:102C80000F900FBE0F901F90189560E573E040E025
:102C90000E949013089562E473E040E00E94901354
:102CA0000895FC01862F648170E06F5F7F4F992744
:102CB00087FD90950E94801E838308950F93FC01E9
:102CC00081E0828384E086A38CE793E09687858702
:102CD000CF0161E040E020E000E00E94101383E0BB
:102CE00061E070E00E949717E1EBF0E08081887F5F
:102CF00081608083F89410928000E1E8F0E0108217
:102D0000109285001092840088E191E090938900F0
:102D10008093880080818860808380818160808347
:102D2000EFE6F0E080818260808378940F910895CF
:102D30001F920F920FB60F9211242F933F938F93F0
:102D40009F93AF93BF938091520690915306A091A9
:102D50005406B0915506309156060196A11DB11D3D
:102D6000232F2D5F2D3720F02D570196A11DB11D6A
:102D7000209356068093520690935306A0935406D0
:102D8000B093550680914E0690914F06A091500643
:102D9000B09151060196A11DB11D80934E069093EE
:102DA0004F06A0935006B0935106BF91AF919F91EB
:102DB0008F913F912F910F900FBE0F901F901895FC
:102DC0008FB7F894209152063091530640915406E3
:102DD000509155068FBFB901CA0108959FB7F89465
:102DE00020914E0630914F06409150065091510669
:102DF00086B5A89B06C08F3F21F02F5F3F4F4F4FF6
:102E00005F4F9FBF542F432F322F2227280F311D92
:102E1000411D511D82E0220F331F441F551F8A950B
:102E2000D1F7B901CA010895EF92FF920F931F9352
:102E3000CF93DF937B018C010E94EE16EB010EC055
:102E40000E94EE166C1B7D0B685E7340C8F30894FD
:102E5000E108F10801091109C851DC4FE114F1043E
:102E60000105110569F7DF91CF911F910F91FF9037
:102E7000EF900895789484B5826084BD84B58160B4
:102E800084BD85B5826085BD85B5816085BDEEE672
:102E9000F0E0808181608083E1E8F0E01082808151
:102EA00082608083808181608083E0E8F0E08081BF
:102EB00081608083E1EBF0E0808184608083E0EBDF
:102EC000F0E0808181608083EAE7F0E080818460C7
:102ED0008083808182608083808181608083808123
:102EE000806880831092C1000895982F8E3008F07A
:102EF0009E5097708091AB038295880F880F807CDD
:102F0000892B80937C0080917A00806480937A0082
:102F100080917A0086FDFCCF209178004091790065
:102F2000942F80E030E0282B392BC90108951F939E
:102F3000CF93DF93182FEB0161E00E94F7172097E2
:102F400009F44AC0CF3FD10509F449C0E12FF0E0B0
:102F5000E253FC4F84918330C1F0843028F48130F7
:102F600051F08230B1F50CC0863019F1873049F14B
:102F7000843079F514C084B5806884BDC7BD33C082
:102F800084B5806284BDC8BD2EC0809180008068F9
:102F900080938000D0938900C093880024C08091E2
:102FA0008000806280938000D0938B00C0938A0061
:102FB0001AC08091B00080688093B000C093B300C5
:102FC00012C08091B00080628093B000C093B400C2
:102FD0000AC0C038D1051CF4812F60E002C0812FE7
:102FE00061E00E946318DF91CF911F910895CF9304
:102FF000DF93482F50E0CA0186549C4FFC01349166
:103000004A555C4FFA018491882369F190E0880F5A
:10301000991FFC01E857FC4FA591B491FC01EE56B5
:10302000FC4FC591D491662351F42FB7F8948C913D
:10303000932F909589238C93888189230BC06230CC
:1030400061F42FB7F8948C91932F909589238C93EA
:103050008881832B88832FBF06C09FB7F8948C91FB
:10306000832B8C939FBFDF91CF910895833071F0B4
:10307000843028F48130A1F0823021F514C08630EC
:10308000B1F08730D1F08430E9F404C08091800041
:103090008F7703C0809180008F7D8093800008959A
:1030A00084B58F7702C084B58F7D84BD08958091EB
:1030B000B0008F778093B00008958091B0008F7D2D
:1030C0008093B0000895FF920F931F93F62E482F20
:1030D00050E0CA0182539C4FFC012491CA018654DE
:1030E0009C4FFC0114914A555C4FFA010491002356
:1030F000C9F0222319F0822F0E943618E02FF0E049
:10310000EE0FFF1FEE56FC4FA591B4919FB7F894B8
:10311000FF2021F48C911095812302C08C91812B8A
:103120008C939FBF1F910F91FF9008950F931F9352
:10313000482F50E0CA0182539C4FFC012491CA01E0
:1031400086549C4FFC0104914A555C4FFA0114913E
:10315000112319F420E030E015C0222319F0822F4A
:103160000E943618812F90E0880F991F84569C4F3B
:10317000FC01A591B4918C9120E030E0802311F006
:1031800021E030E0C9011F910F91089508951F9229
:103190000F920FB60F9211242F933F934F938F935B
:1031A0009F93EF93FF938091C00082FD1DC04091DB
:1031B000C60020919706309198062F5F3F4F2F73DE
:1031C00030708091990690919A062817390771F00E
:1031D000E0919706F0919806E95AF94F40833093B1
:1031E00098062093970602C08091C600FF91EF9148
:1031F0009F918F914F913F912F910F900FBE0F9004
:103200001F901895E091EB06F091EC06E05CFF4F03
:103210008191919120813181821B930B8F739070EA
:10322000892B11F00E94C61808951F920F920FB6B5
:103230000F9211242F933F938F939F93EF93FF93BC
:103240002091DB063091DC068091DD069091DE0650
:103250002817390731F48091C1008F7D8093C10018
:1032600014C0E091DD06F091DE06E556F94F2081AD
:103270008091DD069091DE0601968F739070909399
:10328000DE068093DD062093C600FF91EF919F91AB
:103290008F913F912F910F900FBE0F901F90189517
:1032A000AF92BF92DF92EF92FF920F931F93CF9353
:1032B000DF93EC017A018B01DD24403081EE580769
:1032C00080E0680780E0780711F0DD24D39491E076
:1032D000A92EB12CEC89FD89DD2069F0C50108A07B
:1032E00002C0880F991F0A94E2F7808360E079E0BA
:1032F0008DE390E005C0108260E874E88EE190E014
:10330000A80197010E94931E215030404040504038
:10331000569547953795279580E12030380720F05E
:10332000DD2011F0DD24D6CFE889F9893083EA89E0
:10333000FB89208319A2EE89FF89408121E030E0DA
:10334000C9010C8C02C0880F991F0A94E2F7482B20
:103350004083EE89FF894081C9010D8C02C0880F2E
:10336000991F0A94E2F7482B4083EE89FF89408138
:10337000C9010E8C02C0880F991F0A94E2F7482BEE
:103380004083EE89FF8980810F8C02C0220F331F9A
:103390000A94E2F7209528232083DF91CF911F9193
:1033A0000F91FF90EF90DF90BF90AF900895DC01F8
:1033B0001C96ED91FC911D97E05CFF4F219131919E
:1033C00080819181281B390B2F733070C9010895BA
:1033D000DC011C96ED91FC911D97E05CFF4F208174
:1033E0003181E054F040DF01AE5BBF4F8D919C9185
:1033F00011972817390719F42FEF3FEF07C08D9168
:103400009C91E80FF91F8081282F30E0C9010895B1
:10341000DC011C96ED91FC911D97E05CFF4F208133
:103420003181E054F040DF01AE5BBF4F8D919C9144
:1034300011972817390719F42FEF3FEF10C08D911E
:103440009C911197E80FF91F20818D919C91119704
:1034500001968F73907011969C938E9330E0C90102
:103460000895DC0191968C919197882339F05496B8
:10347000ED91FC915597808186FFF9CF91961C9232
:103480000895CF93DF93EC01EE85FF85E05CFF4F5D
:1034900020813181E054F0402F5F3F4F2F73307017
:1034A000DF01AE5BBF4F8D919C91119728173907B3
:1034B000D1F3E05CFF4F80819181E054F040E80F50
:1034C000F91F6083EE85FF85E05CFF4F3183208329
:1034D000EE89FF89208181E090E00F8C02C0880F87
:1034E000991F0A94E2F7282B208381E089A3EC89B5
:1034F000FD8980818064808381E090E0DF91CF91BD
:1035000008951092E2061092E10688EE93E0A0E0A2
:10351000B0E08093E3069093E406A093E506B093B1
:10352000E60688EB93E09093E0068093DF0687E55C
:1035300096E09093EC068093EB068BE996E09093EF
:10354000EE068093ED0685EC90E09093F006809374
:10355000EF0684EC90E09093F2068093F10680EC05
:1035600090E09093F4068093F30681EC90E09093C2
:10357000F6068093F50682EC90E09093F80680932F
:10358000F70686EC90E09093FA068093F90684E0C3
:103590008093FB0683E08093FC0687E08093FD0622
:1035A00085E08093FE0681E08093FF060895CF9327
:1035B000DF930E943A170E94BB06C2E0D9E10E9445
:1035C000A8062097E1F30E940219F9CFCF92DF926B
:1035D000EF92FF920F931F93CF93DF937C016B01C8
:1035E0008A01C0E0D0E00FC0D6016D916D01D70116
:1035F000ED91FC910190F081E02DC7010995C80F74
:10360000D91F015010400115110571F7CE01DF914E
:10361000CF911F910F91FF90EF90DF90CF90089581
:10362000EF92FF920F931F93CF93DF937C018B0157
:10363000C0E0D0E0F8010F5F1F4F6491662359F09E
:10364000D701ED91FC910190F081E02DC701099522
:10365000C80FD91FEFCFCE01DF91CF911F910F91EE
:10366000FF90EF900895DC01ED91FC910190F081C5
:10367000E02D09950895EF92FF920F931F938C010F
:10368000DC01ED91FC910190F081E02D6DE0099558
:103690007C01D801ED91FC910190F081E02DC801F1
:1036A0006AE009959C012E0D3F1DC9011F910F91E4
:1036B000FF90EF900895EF92FF920F931F937C017C
:1036C0000E94101B8C01C7010E943B1B9C01200F14
:1036D000311FC9011F910F91FF90EF900895CF9373
:1036E000DF93EC016115710519F420E030E00FC0A3
:1036F000DB010D900020E9F71197A61BB70BE881BD
:10370000F9810280F381E02DAD0109959C01C90189
:10371000DF91CF9108954F925F927F928F929F9207
:10372000AF92BF92CF92DF92EF92FF920F931F93CF
:10373000DF93CF93CDB7DEB7A1970FB6F894DEBF76
:103740000FBECDBF2C01742ECB01223008F42AE02D
:1037500019A231E2C32ED12CCC0EDD1E822E99246B
:10376000AA24BB24672D752FA50194010E94931EE6
:1037700079018A01C801B701A50194010E94411E87
:10378000472D461B0894C108D1084A3014F4405D07
:1037900001C0495CF6014083E114F1040105110503
:1037A00021F07E2C5F2DC801DDCFC201B6010E9441
:1037B0006F1BA1960FB6F894DEBF0FBECDBFCF91A1
:1037C000DF911F910F91FF90EF90DF90CF90BF900E
:1037D000AF909F908F907F905F904F900895DC0105
:1037E0002115310541F4ED91FC910190F081E02D1E
:1037F000642F099508950E948B1B0895EF92FF9204
:103800000F931F937C010E94EF1B8C01C7010E9444
:103810003B1B9C01200F311FC9011F910F91FF908D
:10382000EF900895EF92FF920F931F939A017B01FF
:1038300000E010E0B801A7010E94EF1B1F910F915B
:10384000FF90EF900895EF92FF920F931F939A01CC
:10385000E62EFF2400E010E0B801A7010E94EF1B54
:103860001F910F91FF90EF900895CF92DF92EF920A
:10387000FF920F931F936C01E62E9A01FF2400E044
:1038800010E0B801A7010E94EF1B8C01C6010E9445
:103890003B1B080F191FC8011F910F91FF90EF905C
:1038A000DF90CF9008950E946F1B0895EF92FF92D2
:1038B0000F931F937C010E946F1B8C01C7010E9414
:1038C0003B1B080F191FC8011F910F91FF90EF902C
:1038D00008952F923F924F925F926F927F928F92B4
:1038E0009F92AF92BF92CF92DF92EF92FF920F938F
:1038F0001F93DF93CF93CDB7DEB73B014C01190186
:103900002A016D897E898F89988D6A197B098C09B6
:103910009D09621A730A840A950AA40193010E9400
:10392000411EE218F30804091509A80197010E9435
:10393000B51E2A0D3B1D4C1D5D1DB901CA01CF915D
:10394000DF911F910F91FF90EF90DF90CF90BF908C
:10395000AF909F908F907F906F905F904F903F902F
:103960002F900895009729F0BC0180E090E00E941C
:103970002E1F08955058BB27AA270ED0E5C0D6D0D9
:1039800030F0DBD020F031F49F3F11F41EF4CBC0B7
:103990000EF4E095E7FBC1C0E92FE7D080F3BA173A
:1039A000620773078407950718F071F49EF5FFC04E
:1039B0000EF4E0950B2EBA2FA02D0B01B90190014A
:1039C0000C01CA01A0011124FF27591B99F0593F8E
:1039D00050F4503E68F11A16F040A22F232F342FD6
:1039E0004427585FF3CF469537952795A795F04024
:1039F0005395C9F77EF41F16BA0B620B730B840B39
:103A0000BAF09150A1F0FF0FBB1F661F771F881FF0
:103A1000C2F70EC0BA0F621F731F841F48F4879548
:103A200077956795B795F7959E3F08F0B3CF939537
:103A3000880F08F09927EE0F97958795089504D081
:103A40006894B111B5C0089598D088F09F5790F050
:103A5000B92F9927B751A0F0D1F0660F771F881FB3
:103A6000991F1AF0BA95C9F712C0B13081F09FD0F2
:103A7000B1E008959CC0672F782F8827B85F39F090
:103A8000B93FCCF3869577956795B395D9F73EF412
:103A900090958095709561957F4F8F4F9F4F0895BA
:103AA000E89409C097FB3EF49095809570956195D8
:103AB0007F4F8F4F9F4F9923A9F0F92F96E9BB278E
:103AC0009395F695879577956795B795F111F8CF0A
:103AD000FAF4BB0F11F460FF1BC06F5F7F4F8F4F75
:103AE0009F4F16C0882311F096E911C0772321F06B
:103AF0009EE8872F762F05C0662371F096E8862F03
:103B000070E060E02AF09A95660F771F881FDAF759
:103B1000880F9695879597F9089597F99F6780E89C
:103B200070E060E008959FEF80EC089500240A940F
:103B30001616170618060906089500240A94121688
:103B40001306140605060895092E0394000C11F4BB
:103B5000882352F0BB0F40F4BF2B11F460FF04C068
:103B60006F5F7F4F8F4F9F4F089557FD9058440FC1
:103B7000551F59F05F3F71F04795880F97FB991FCC
:103B800061F09F3F79F08795089512161306140689
:103B9000551FF2CF4695F1DF08C016161706180616
:103BA000991FF1CF86957105610508940895E894F1
:103BB000BB2766277727CB0197F908950BD0C4CF91
:103BC000B5DF28F0BADF18F0952309F0A6CFABCF08
:103BD0001124EECFCADFA0F3959FD1F3950F50E0EB
:103BE000551F629FF001729FBB27F00DB11D639FAF
:103BF000AA27F00DB11DAA1F649F6627B00DA11D55
:103C0000661F829F2227B00DA11D621F739FB00DFA
:103C1000A11D621F839FA00D611D221F749F33276A
:103C2000A00D611D231F849F600D211D822F762F03
:103C30006A2F11249F5750408AF0E1F088234AF000
:103C4000EE0FFF1FBB1F661F771F881F915050404C
:103C5000A9F79E3F510570F060CFAACF5F3FECF30C
:103C6000983EDCF3869577956795B795F795E79538
:103C70009F5FC1F7FE2B880F911D9695879597F949
:103C80000895629FD001739FF001829FE00DF11DA6
:103C9000649FE00DF11D929FF00D839FF00D749FC6
:103CA000F00D659FF00D9927729FB00DE11DF91F72
:103CB000639FB00DE11DF91FBD01CF0111240895CF
:103CC000991B79E004C0991F961708F0961B881F6E
:103CD0007A95C9F780950895AA1BBB1B51E107C0CF
:103CE000AA1FBB1FA617B70710F0A61BB70B881F8C
:103CF000991F5A95A9F780959095BC01CD0108951B
:103D000097FB092E07260AD077FD04D0E5DF06D001
:103D100000201AF4709561957F4F0895F6F79095FD
:103D200081959F4F0895A1E21A2EAA1BBB1BFD018E
:103D30000DC0AA1FBB1FEE1FFF1FA217B307E4078A
:103D4000F50720F0A21BB30BE40BF50B661F771FE2
:103D5000881F991F1A9469F76095709580959095C2
:103D60009B01AC01BD01CF01089597FB092E0526EB
:103D70000ED057FD04D0D7DF0AD0001C38F4509580
:103D80004095309521953F4F4F4F5F4F0895F6F77F
:103D900090958095709561957F4F8F4F9F4F0895B7
:103DA000EE0FFF1F0590F491E02D0994A0E0B0E024
:103DB000ECEDFEE10C943F1FEC01A880B980CA80B5
:103DC000DB80A114B104C104D10441F484E2A82E23
:103DD00089EDB82E8BE5C82E87E0D82EC601B50137
:103DE0002DE133EF41E050E00E94B51E27EA31E4B7
:103DF00040E050E00E94411E7B018C01C601B501EC
:103E00002DE133EF41E050E00E94B51ECA01B90137
:103E10002CEE34EF4FEF5FEF0E94411E6E0D7F1DC1
:103E2000801F911F97FF04C06150704080409048F0
:103E3000688379838A839B839B01AC015F77B90197
:103E4000CA01CDB7DEB7EAE00C945B1F0E94D61E14
:103E5000089583EE91E00E94D61E08956093E301D9
:103E60007093E4018093E5019093E60108952F9209
:103E70003F924F925F926F927F928F929F92AF92FA
:103E8000BF92CF92DF92EF92FF920F931F93CF9347
:103E9000DF93CDB7DEB7CA1BDB0B0FB6F894DEBFDE
:103EA0000FBECDBF09942A88398848885F846E8404
:103EB0007D848C849B84AA84B984C884DF80EE804E
:103EC000FD800C811B81AA81B981CE0FD11D0FB657
:103ED000F894DEBF0FBECDBFED010895F894FFCF7B
:103EE00074696C653A2000426F6D6220583A002078
:103EF000593A00427265616B61626C652052696774
:103F0000687400427265616B61626C65204C656625
:103F10007400427265616B61626C6520557000428D
:103F20007265616B61626C6520446F776E00436FF0
:103F30006C6C6973696F6E202D20436F6C3A0020A2
:103F4000526F773A0054696D65723A00426F6D6244
:103F5000206578706C6F64650053657420626F6DC6
:103F60006220783A0020793A000A44656275672039
:103F7000426F6D6265726D616E0A00506C617965A9
:103F80007220583A000A506C6179657220593A00E3
:103F90000A52414D20467265653A000A4350553A2F
:103FA00020000A56657273696F6E3A20312E3061B7
:103FB000004C6F6164696E672E2E2E004C4F414499
:103FC00045520001000000FFFF0101010101010154
:103FD00001010101010101010101010101000100D3
:103FE00000000000000000020200000000000000CD
:103FF00000010001000000000000000002020000BB
:1040000000000000000001000100000000000000AE
:10401000000202000000000000000001000100009A
:104020000100000100000202000001000001000088
:10403000010001000000000000000002020000007A
:10404000000000000001000100000000000000006E
:104050000202000000000000000001000100000159
:104060000000010000020200000100000100000148
:10407000000100000000000000000202000000003B
:10408000000000000100010000000000000000022C
:10409000020000000000000000010001000000001C
:1040A000000000000202000000000000000001000B
:1040B00001010101010101010101010101010101F0
:1040C00001010101000000000000000000000000EC
:1040D00000000000000000000000000000000000E0
:1040E00000000000000000000000000000000000D0
:1040F00000000000000000000000000000000000C0
:1041000000000000000000000000000000000000AF
:10411000000000000000000000000000000000009F
:10412000000000000000000000000000000000008F
:10413000000000000000000000000000000000007F
:10414000000000000000000000000000000000006F
:10415000000000000000000000000000000000005F
:10416000000000000000000000000000000000004F
:10417000000000000000000000000000000000003F
:104180000000040404040202010107010000000011
:104190007D0CE61A00000000411AE61AD719081A29
:0441A000E819311ACF
:00000001FF
